{
  "contractName": "Land",
  "abi": [
    {
      "inputs": [],
      "payable": false,
      "stateMutability": "nonpayable",
      "type": "constructor"
    },
    {
      "anonymous": false,
      "inputs": [
        {
          "indexed": false,
          "internalType": "uint256",
          "name": "id",
          "type": "uint256"
        },
        {
          "indexed": false,
          "internalType": "string",
          "name": "name",
          "type": "string"
        },
        {
          "indexed": false,
          "internalType": "uint256",
          "name": "price",
          "type": "uint256"
        },
        {
          "indexed": false,
          "internalType": "address payable",
          "name": "owner",
          "type": "address"
        },
        {
          "indexed": false,
          "internalType": "bool",
          "name": "purchased",
          "type": "bool"
        }
      ],
      "name": "PlotCreated",
      "type": "event"
    },
    {
      "anonymous": false,
      "inputs": [
        {
          "indexed": false,
          "internalType": "uint256",
          "name": "id",
          "type": "uint256"
        },
        {
          "indexed": false,
          "internalType": "string",
          "name": "name",
          "type": "string"
        },
        {
          "indexed": false,
          "internalType": "uint256",
          "name": "price",
          "type": "uint256"
        },
        {
          "indexed": false,
          "internalType": "address payable",
          "name": "owner",
          "type": "address"
        },
        {
          "indexed": false,
          "internalType": "bool",
          "name": "purchased",
          "type": "bool"
        }
      ],
      "name": "PlotPurchased",
      "type": "event"
    },
    {
      "constant": true,
      "inputs": [],
      "name": "name",
      "outputs": [
        {
          "internalType": "string",
          "name": "",
          "type": "string"
        }
      ],
      "payable": false,
      "stateMutability": "view",
      "type": "function"
    },
    {
      "constant": true,
      "inputs": [],
      "name": "plotCount",
      "outputs": [
        {
          "internalType": "uint256",
          "name": "",
          "type": "uint256"
        }
      ],
      "payable": false,
      "stateMutability": "view",
      "type": "function"
    },
    {
      "constant": true,
      "inputs": [
        {
          "internalType": "uint256",
          "name": "",
          "type": "uint256"
        }
      ],
      "name": "plots",
      "outputs": [
        {
          "internalType": "uint256",
          "name": "id",
          "type": "uint256"
        },
        {
          "internalType": "string",
          "name": "name",
          "type": "string"
        },
        {
          "internalType": "uint256",
          "name": "price",
          "type": "uint256"
        },
        {
          "internalType": "address payable",
          "name": "owner",
          "type": "address"
        },
        {
          "internalType": "bool",
          "name": "purchased",
          "type": "bool"
        }
      ],
      "payable": false,
      "stateMutability": "view",
      "type": "function"
    },
    {
      "constant": false,
      "inputs": [
        {
          "internalType": "string",
          "name": "_name",
          "type": "string"
        },
        {
          "internalType": "uint256",
          "name": "_price",
          "type": "uint256"
        }
      ],
      "name": "createPlot",
      "outputs": [],
      "payable": false,
      "stateMutability": "nonpayable",
      "type": "function"
    },
    {
      "constant": false,
      "inputs": [
        {
          "internalType": "uint256",
          "name": "_id",
          "type": "uint256"
        }
      ],
      "name": "purchasePlot",
      "outputs": [],
      "payable": true,
      "stateMutability": "payable",
      "type": "function"
    }
  ],
  "bytecode": "0x6080604052600060015534801561001557600080fd5b506040518060400160405280600a81526020017f457468657276657273650000000000000000000000000000000000000000000081525060009080519060200190610061929190610067565b5061010c565b828054600181600116156101000203166002900490600052602060002090601f016020900481019282601f106100a857805160ff19168380011785556100d6565b828001600101855582156100d6579182015b828111156100d55782518255916020019190600101906100ba565b5b5090506100e391906100e7565b5090565b61010991905b808211156101055760008160009055506001016100ed565b5090565b90565b610beb8061011b6000396000f3fe60806040526004361061004a5760003560e01c806306fdde031461004f57806332c55e11146100df57806361bf49ee1461010a578063a7e1cdbb1461020a578063d0f11ea1146102dc575b600080fd5b34801561005b57600080fd5b5061006461030a565b6040518080602001828103825283818151815260200191508051906020019080838360005b838110156100a4578082015181840152602081019050610089565b50505050905090810190601f1680156100d15780820380516001836020036101000a031916815260200191505b509250505060405180910390f35b3480156100eb57600080fd5b506100f46103a8565b6040518082815260200191505060405180910390f35b34801561011657600080fd5b506101436004803603602081101561012d57600080fd5b81019080803590602001909291905050506103ae565b60405180868152602001806020018581526020018473ffffffffffffffffffffffffffffffffffffffff1673ffffffffffffffffffffffffffffffffffffffff16815260200183151515158152602001828103825286818151815260200191508051906020019080838360005b838110156101cb5780820151818401526020810190506101b0565b50505050905090810190601f1680156101f85780820380516001836020036101000a031916815260200191505b50965050505050505060405180910390f35b34801561021657600080fd5b506102da6004803603604081101561022d57600080fd5b810190808035906020019064010000000081111561024a57600080fd5b82018360208201111561025c57600080fd5b8035906020019184600183028401116401000000008311171561027e57600080fd5b91908080601f016020809104026020016040519081016040528093929190818152602001838380828437600081840152601f19601f820116905080830192505050505050509192919290803590602001909291905050506104a9565b005b610308600480360360208110156102f257600080fd5b81019080803590602001909291905050506106bb565b005b60008054600181600116156101000203166002900480601f0160208091040260200160405190810160405280929190818152602001828054600181600116156101000203166002900480156103a05780601f10610375576101008083540402835291602001916103a0565b820191906000526020600020905b81548152906001019060200180831161038357829003601f168201915b505050505081565b60015481565b6002602052806000526040600020600091509050806000015490806001018054600181600116156101000203166002900480601f0160208091040260200160405190810160405280929190818152602001828054600181600116156101000203166002900480156104605780601f1061043557610100808354040283529160200191610460565b820191906000526020600020905b81548152906001019060200180831161044357829003601f168201915b5050505050908060020154908060030160009054906101000a900473ffffffffffffffffffffffffffffffffffffffff16908060030160149054906101000a900460ff16905085565b60008251116104b757600080fd5b600081116104c457600080fd5b6001600081548092919060010191905055506040518060a0016040528060015481526020018381526020018281526020013373ffffffffffffffffffffffffffffffffffffffff16815260200160001515815250600260006001548152602001908152602001600020600082015181600001556020820151816001019080519060200190610553929190610aca565b506040820151816002015560608201518160030160006101000a81548173ffffffffffffffffffffffffffffffffffffffff021916908373ffffffffffffffffffffffffffffffffffffffff16021790555060808201518160030160146101000a81548160ff0219169083151502179055509050507fb29353bddb7cdcf126a1073d7bf784cca98f9474dc0d64a59435ed90a2a3ef5a600154838333600060405180868152602001806020018581526020018473ffffffffffffffffffffffffffffffffffffffff1673ffffffffffffffffffffffffffffffffffffffff16815260200183151515158152602001828103825286818151815260200191508051906020019080838360005b8381101561067957808201518184015260208101905061065e565b50505050905090810190601f1680156106a65780820380516001836020036101000a031916815260200191505b50965050505050505060405180910390a15050565b6106c3610b4a565b600260008381526020019081526020016000206040518060a001604052908160008201548152602001600182018054600181600116156101000203166002900480601f0160208091040260200160405190810160405280929190818152602001828054600181600116156101000203166002900480156107845780601f1061075957610100808354040283529160200191610784565b820191906000526020600020905b81548152906001019060200180831161076757829003601f168201915b50505050508152602001600282015481526020016003820160009054906101000a900473ffffffffffffffffffffffffffffffffffffffff1673ffffffffffffffffffffffffffffffffffffffff1673ffffffffffffffffffffffffffffffffffffffff1681526020016003820160149054906101000a900460ff16151515158152505090506000816060015190506000826000015111801561082d5750600154826000015111155b61083657600080fd5b816040015134101561084757600080fd5b81608001511561085657600080fd5b3373ffffffffffffffffffffffffffffffffffffffff168173ffffffffffffffffffffffffffffffffffffffff16141561088f57600080fd5b33826060019073ffffffffffffffffffffffffffffffffffffffff16908173ffffffffffffffffffffffffffffffffffffffff168152505060018260800190151590811515815250508160026000858152602001908152602001600020600082015181600001556020820151816001019080519060200190610912929190610aca565b506040820151816002015560608201518160030160006101000a81548173ffffffffffffffffffffffffffffffffffffffff021916908373ffffffffffffffffffffffffffffffffffffffff16021790555060808201518160030160146101000a81548160ff0219169083151502179055509050508073ffffffffffffffffffffffffffffffffffffffff166108fc349081150290604051600060405180830381858888f193505050501580156109cd573d6000803e3d6000fd5b507f90eae92d3479da9f90e12ccb37d12718e13c02904c6e3b37bba0e777050828376001548360200151846040015133600160405180868152602001806020018581526020018473ffffffffffffffffffffffffffffffffffffffff1673ffffffffffffffffffffffffffffffffffffffff16815260200183151515158152602001828103825286818151815260200191508051906020019080838360005b83811015610a87578082015181840152602081019050610a6c565b50505050905090810190601f168015610ab45780820380516001836020036101000a031916815260200191505b50965050505050505060405180910390a1505050565b828054600181600116156101000203166002900490600052602060002090601f016020900481019282601f10610b0b57805160ff1916838001178555610b39565b82800160010185558215610b39579182015b82811115610b38578251825591602001919060010190610b1d565b5b509050610b469190610b91565b5090565b6040518060a00160405280600081526020016060815260200160008152602001600073ffffffffffffffffffffffffffffffffffffffff1681526020016000151581525090565b610bb391905b80821115610baf576000816000905550600101610b97565b5090565b9056fea265627a7a72315820a71bee289214efd5280b58b70442677e389c938e3cb2a6f7ef915b53d7cb4f5164736f6c63430005100032",
  "source": "pragma solidity ^0.5.0;\r\n\r\ncontract Land {\r\n    string public name;\r\n    uint256 public plotCount = 0;\r\n    mapping(uint256 => Plot) public plots;\r\n\r\n    struct Plot {\r\n        uint256 id;\r\n        string name;\r\n        uint256 price;\r\n        address payable owner;\r\n        bool purchased;\r\n    }\r\n\r\n    event PlotCreated(\r\n        uint256 id,\r\n        string name,\r\n        uint256 price,\r\n        address payable owner,\r\n        bool purchased\r\n    );\r\n\r\n    event PlotPurchased(\r\n        uint256 id,\r\n        string name,\r\n        uint256 price,\r\n        address payable owner,\r\n        bool purchased\r\n    );\r\n\r\n    constructor() public {\r\n        name = \"Etherverse\";\r\n    }\r\n\r\n    function createPlot(string memory _name, uint256 _price) public {\r\n        // Require a valid name\r\n        require(bytes(_name).length > 0);\r\n        // Require a valid price\r\n        require(_price > 0);\r\n        // Increment product count\r\n        plotCount++;\r\n        // Create the product\r\n        plots[plotCount] = Plot(plotCount, _name, _price, msg.sender, false);\r\n        // Trigger an event\r\n        emit PlotCreated(plotCount, _name, _price, msg.sender, false);\r\n    }\r\n\r\n    function purchasePlot(uint256 _id) public payable {\r\n        // Fetch the product\r\n        Plot memory _plot = plots[_id];\r\n        // Fetch the owner\r\n        address payable _seller = _plot.owner;\r\n        // Make sure the product has a valid id\r\n        require(_plot.id > 0 && _plot.id <= plotCount);\r\n        // Require that there is enough Ether in the transaction\r\n        require(msg.value >= _plot.price);\r\n        // Require that the product has not been purchased already\r\n        require(!_plot.purchased);\r\n        // Require that the buyer is not the seller\r\n        require(_seller != msg.sender);\r\n        // Transfer ownership to the buyer\r\n        _plot.owner = msg.sender;\r\n        // Mark as purchased\r\n        _plot.purchased = true;\r\n        // Update the product\r\n        plots[_id] = _plot;\r\n        // Pay the seller by sending them Ether\r\n        address(_seller).transfer(msg.value);\r\n        // Trigger an event\r\n        emit PlotPurchased(\r\n            plotCount,\r\n            _plot.name,\r\n            _plot.price,\r\n            msg.sender,\r\n            true\r\n        );\r\n    }\r\n}\r\n",
  "sourcePath": "C:\\Users\\kulka\\Documents\\GitHub\\etherverse\\backend\\src\\contracts\\Land.sol",
  "compiler": {
    "name": "solc",
    "version": "0.5.16+commit.9c3226ce.Emscripten.clang"
  },
  "schemaVersion": "3.4.7",
  "updatedAt": "2022-05-01T21:15:01.796Z",
  "devdoc": {
    "methods": {}
  },
  "userdoc": {
    "methods": {}
  }
}