{
  "contractName": "Land",
  "abi": [
    {
      "inputs": [],
      "payable": false,
      "stateMutability": "nonpayable",
      "type": "constructor"
    },
    {
      "anonymous": false,
      "inputs": [
        {
          "indexed": false,
          "internalType": "uint256",
          "name": "date",
          "type": "uint256"
        },
        {
          "indexed": false,
          "internalType": "address",
          "name": "buyer",
          "type": "address"
        },
        {
          "indexed": false,
          "internalType": "address",
          "name": "seller",
          "type": "address"
        },
        {
          "indexed": false,
          "internalType": "uint256",
          "name": "price",
          "type": "uint256"
        }
      ],
      "name": "HistoryUpdated",
      "type": "event"
    },
    {
      "anonymous": false,
      "inputs": [
        {
          "indexed": false,
          "internalType": "uint256",
          "name": "id",
          "type": "uint256"
        },
        {
          "indexed": false,
          "internalType": "string",
          "name": "name",
          "type": "string"
        },
        {
          "indexed": false,
          "internalType": "uint256",
          "name": "price",
          "type": "uint256"
        },
        {
          "indexed": false,
          "internalType": "address payable",
          "name": "owner",
          "type": "address"
        },
        {
          "indexed": false,
          "internalType": "bool",
          "name": "onMarket",
          "type": "bool"
        }
      ],
      "name": "PlotCreated",
      "type": "event"
    },
    {
      "anonymous": false,
      "inputs": [
        {
          "indexed": false,
          "internalType": "uint256",
          "name": "id",
          "type": "uint256"
        },
        {
          "indexed": false,
          "internalType": "string",
          "name": "name",
          "type": "string"
        },
        {
          "indexed": false,
          "internalType": "uint256",
          "name": "price",
          "type": "uint256"
        },
        {
          "indexed": false,
          "internalType": "address payable",
          "name": "owner",
          "type": "address"
        },
        {
          "indexed": false,
          "internalType": "bool",
          "name": "onMarket",
          "type": "bool"
        }
      ],
      "name": "PlotPurchased",
      "type": "event"
    },
    {
      "constant": true,
      "inputs": [],
      "name": "name",
      "outputs": [
        {
          "internalType": "string",
          "name": "",
          "type": "string"
        }
      ],
      "payable": false,
      "stateMutability": "view",
      "type": "function"
    },
    {
      "constant": true,
      "inputs": [],
      "name": "plotCount",
      "outputs": [
        {
          "internalType": "uint256",
          "name": "",
          "type": "uint256"
        }
      ],
      "payable": false,
      "stateMutability": "view",
      "type": "function"
    },
    {
      "constant": true,
      "inputs": [
        {
          "internalType": "uint256",
          "name": "",
          "type": "uint256"
        }
      ],
      "name": "plots",
      "outputs": [
        {
          "internalType": "uint256",
          "name": "id",
          "type": "uint256"
        },
        {
          "internalType": "string",
          "name": "name",
          "type": "string"
        },
        {
          "internalType": "uint256",
          "name": "price",
          "type": "uint256"
        },
        {
          "internalType": "address payable",
          "name": "owner",
          "type": "address"
        },
        {
          "internalType": "bool",
          "name": "onMarket",
          "type": "bool"
        },
        {
          "internalType": "uint256",
          "name": "historyLength",
          "type": "uint256"
        }
      ],
      "payable": false,
      "stateMutability": "view",
      "type": "function"
    },
    {
      "constant": false,
      "inputs": [
        {
          "internalType": "string",
          "name": "_name",
          "type": "string"
        },
        {
          "internalType": "uint256",
          "name": "_price",
          "type": "uint256"
        }
      ],
      "name": "createPlot",
      "outputs": [],
      "payable": false,
      "stateMutability": "nonpayable",
      "type": "function"
    },
    {
      "constant": false,
      "inputs": [
        {
          "internalType": "uint256",
          "name": "_id",
          "type": "uint256"
        }
      ],
      "name": "purchasePlot",
      "outputs": [],
      "payable": true,
      "stateMutability": "payable",
      "type": "function"
    },
    {
      "constant": false,
      "inputs": [
        {
          "internalType": "uint256",
          "name": "_id",
          "type": "uint256"
        },
        {
          "internalType": "uint256",
          "name": "_newPrice",
          "type": "uint256"
        }
      ],
      "name": "changePrice",
      "outputs": [
        {
          "internalType": "bool",
          "name": "",
          "type": "bool"
        }
      ],
      "payable": false,
      "stateMutability": "nonpayable",
      "type": "function"
    },
    {
      "constant": false,
      "inputs": [
        {
          "internalType": "uint256",
          "name": "_id",
          "type": "uint256"
        },
        {
          "internalType": "string",
          "name": "_newName",
          "type": "string"
        }
      ],
      "name": "changeName",
      "outputs": [
        {
          "internalType": "bool",
          "name": "",
          "type": "bool"
        }
      ],
      "payable": false,
      "stateMutability": "nonpayable",
      "type": "function"
    },
    {
      "constant": false,
      "inputs": [
        {
          "internalType": "uint256",
          "name": "_id",
          "type": "uint256"
        }
      ],
      "name": "listPlot",
      "outputs": [
        {
          "internalType": "bool",
          "name": "",
          "type": "bool"
        }
      ],
      "payable": false,
      "stateMutability": "nonpayable",
      "type": "function"
    }
  ],
  "bytecode": "0x608060405260006001553480156200001657600080fd5b506040518060400160405280600a81526020017f457468657276657273650000000000000000000000000000000000000000000081525060009080519060200190620000649291906200006b565b506200011a565b828054600181600116156101000203166002900490600052602060002090601f016020900481019282601f10620000ae57805160ff1916838001178555620000df565b82800160010185558215620000df579182015b82811115620000de578251825591602001919060010190620000c1565b5b509050620000ee9190620000f2565b5090565b6200011791905b8082111562000113576000816000905550600101620000f9565b5090565b90565b611503806200012a6000396000f3fe60806040526004361061007b5760003560e01c8063a7e1cdbb1161004e578063a7e1cdbb14610295578063b3de019c14610367578063c39cbef1146103c4578063d0f11ea1146104ae5761007b565b806306fdde031461008057806332c55e11146101105780635d2711cc1461013b57806361bf49ee1461018e575b600080fd5b34801561008c57600080fd5b506100956104dc565b6040518080602001828103825283818151815260200191508051906020019080838360005b838110156100d55780820151818401526020810190506100ba565b50505050905090810190601f1680156101025780820380516001836020036101000a031916815260200191505b509250505060405180910390f35b34801561011c57600080fd5b5061012561057a565b6040518082815260200191505060405180910390f35b34801561014757600080fd5b506101746004803603602081101561015e57600080fd5b8101908080359060200190929190505050610580565b604051808215151515815260200191505060405180910390f35b34801561019a57600080fd5b506101c7600480360360208110156101b157600080fd5b810190808035906020019092919050505061064b565b60405180878152602001806020018681526020018573ffffffffffffffffffffffffffffffffffffffff1673ffffffffffffffffffffffffffffffffffffffff16815260200184151515158152602001838152602001828103825287818151815260200191508051906020019080838360005b8381101561025557808201518184015260208101905061023a565b50505050905090810190601f1680156102825780820380516001836020036101000a031916815260200191505b5097505050505050505060405180910390f35b3480156102a157600080fd5b50610365600480360360408110156102b857600080fd5b81019080803590602001906401000000008111156102d557600080fd5b8201836020820111156102e757600080fd5b8035906020019184600183028401116401000000008311171561030957600080fd5b91908080601f016020809104026020016040519081016040528093929190818152602001838380828437600081840152601f19601f8201169050808301925050505050505091929192908035906020019092919050505061074c565b005b34801561037357600080fd5b506103aa6004803603604081101561038a57600080fd5b810190808035906020019092919080359060200190929190505050610962565b604051808215151515815260200191505060405180910390f35b3480156103d057600080fd5b50610494600480360360408110156103e757600080fd5b81019080803590602001909291908035906020019064010000000081111561040e57600080fd5b82018360208201111561042057600080fd5b8035906020019184600183028401116401000000008311171561044257600080fd5b91908080601f016020809104026020016040519081016040528093929190818152602001838380828437600081840152601f19601f820116905080830192505050505050509192919290505050610b25565b604051808215151515815260200191505060405180910390f35b6104da600480360360208110156104c457600080fd5b8101908080359060200190929190505050610bca565b005b60008054600181600116156101000203166002900480601f0160208091040260200160405190810160405280929190818152602001828054600181600116156101000203166002900480156105725780601f1061054757610100808354040283529160200191610572565b820191906000526020600020905b81548152906001019060200180831161055557829003601f168201915b505050505081565b60015481565b60003373ffffffffffffffffffffffffffffffffffffffff166002600084815260200190815260200160002060030160009054906101000a900473ffffffffffffffffffffffffffffffffffffffff1673ffffffffffffffffffffffffffffffffffffffff16146105f057600080fd5b6002600083815260200190815260200160002060030160149054906101000a900460ff16156002600084815260200190815260200160002060030160146101000a81548160ff02191690831515021790555060019050919050565b6002602052806000526040600020600091509050806000015490806001018054600181600116156101000203166002900480601f0160208091040260200160405190810160405280929190818152602001828054600181600116156101000203166002900480156106fd5780601f106106d2576101008083540402835291602001916106fd565b820191906000526020600020905b8154815290600101906020018083116106e057829003601f168201915b5050505050908060020154908060030160009054906101000a900473ffffffffffffffffffffffffffffffffffffffff16908060030160149054906101000a900460ff16908060050154905086565b600082511161075a57600080fd5b6001600081548092919060010191905055506040518060c0016040528060015481526020018381526020018281526020013373ffffffffffffffffffffffffffffffffffffffff16815260200160001515815260200160008152506002600060015481526020019081526020016000206000820151816000015560208201518160010190805190602001906107f0929190611307565b506040820151816002015560608201518160030160006101000a81548173ffffffffffffffffffffffffffffffffffffffff021916908373ffffffffffffffffffffffffffffffffffffffff16021790555060808201518160030160146101000a81548160ff02191690831515021790555060a082015181600501559050507fb29353bddb7cdcf126a1073d7bf784cca98f9474dc0d64a59435ed90a2a3ef5a600154838333600060405180868152602001806020018581526020018473ffffffffffffffffffffffffffffffffffffffff1673ffffffffffffffffffffffffffffffffffffffff16815260200183151515158152602001828103825286818151815260200191508051906020019080838360005b83811015610920578082015181840152602081019050610905565b50505050905090810190601f16801561094d5780820380516001836020036101000a031916815260200191505b50965050505050505060405180910390a15050565b600061096c611387565b600260008581526020019081526020016000206040518060c001604052908160008201548152602001600182018054600181600116156101000203166002900480601f016020809104026020016040519081016040528092919081815260200182805460018160011615610100020316600290048015610a2d5780601f10610a0257610100808354040283529160200191610a2d565b820191906000526020600020905b815481529060010190602001808311610a1057829003601f168201915b50505050508152602001600282015481526020016003820160009054906101000a900473ffffffffffffffffffffffffffffffffffffffff1673ffffffffffffffffffffffffffffffffffffffff1673ffffffffffffffffffffffffffffffffffffffff1681526020016003820160149054906101000a900460ff1615151515815260200160058201548152505090506000816060015190503373ffffffffffffffffffffffffffffffffffffffff168173ffffffffffffffffffffffffffffffffffffffff1614610afe57600080fd5b83600260008781526020019081526020016000206002018190555060019250505092915050565b60003373ffffffffffffffffffffffffffffffffffffffff166002600085815260200190815260200160002060030160009054906101000a900473ffffffffffffffffffffffffffffffffffffffff1673ffffffffffffffffffffffffffffffffffffffff1614610b9557600080fd5b81600260008581526020019081526020016000206001019080519060200190610bbf9291906113d5565b506001905092915050565b610bd2611387565b600260008381526020019081526020016000206040518060c001604052908160008201548152602001600182018054600181600116156101000203166002900480601f016020809104026020016040519081016040528092919081815260200182805460018160011615610100020316600290048015610c935780601f10610c6857610100808354040283529160200191610c93565b820191906000526020600020905b815481529060010190602001808311610c7657829003601f168201915b50505050508152602001600282015481526020016003820160009054906101000a900473ffffffffffffffffffffffffffffffffffffffff1673ffffffffffffffffffffffffffffffffffffffff1673ffffffffffffffffffffffffffffffffffffffff1681526020016003820160149054906101000a900460ff16151515158152602001600582015481525050905060008160600151905060008260000151118015610d465750600154826000015111155b610d4f57600080fd5b8160400151341015610d6057600080fd5b8160800151610d6e57600080fd5b3373ffffffffffffffffffffffffffffffffffffffff168173ffffffffffffffffffffffffffffffffffffffff161415610da757600080fd5b33826060019073ffffffffffffffffffffffffffffffffffffffff16908173ffffffffffffffffffffffffffffffffffffffff168152505060008260800190151590811515815250508160026000858152602001908152602001600020600082015181600001556020820151816001019080519060200190610e2a929190611307565b506040820151816002015560608201518160030160006101000a81548173ffffffffffffffffffffffffffffffffffffffff021916908373ffffffffffffffffffffffffffffffffffffffff16021790555060808201518160030160146101000a81548160ff02191690831515021790555060a082015181600501559050508073ffffffffffffffffffffffffffffffffffffffff166108fc349081150290604051600060405180830381858888f19350505050158015610eef573d6000803e3d6000fd5b50600260008481526020019081526020016000206005016000815480929190600101919050555060405180608001604052804281526020013373ffffffffffffffffffffffffffffffffffffffff1681526020018273ffffffffffffffffffffffffffffffffffffffff1681526020018360400151815250600260008581526020019081526020016000206004016000600260008781526020019081526020016000206005015481526020019081526020016000206000820151816000015560208201518160010160006101000a81548173ffffffffffffffffffffffffffffffffffffffff021916908373ffffffffffffffffffffffffffffffffffffffff16021790555060408201518160020160006101000a81548173ffffffffffffffffffffffffffffffffffffffff021916908373ffffffffffffffffffffffffffffffffffffffff160217905550606082015181600301559050507f90eae92d3479da9f90e12ccb37d12718e13c02904c6e3b37bba0e777050828376001548360200151846040015133600060405180868152602001806020018581526020018473ffffffffffffffffffffffffffffffffffffffff1673ffffffffffffffffffffffffffffffffffffffff16815260200183151515158152602001828103825286818151815260200191508051906020019080838360005b838110156111025780820151818401526020810190506110e7565b50505050905090810190601f16801561112f5780820380516001836020036101000a031916815260200191505b50965050505050505060405180910390a1611148611455565b60026000858152602001908152602001600020600401600060026000878152602001908152602001600020600501548152602001908152602001600020604051806080016040529081600082015481526020016001820160009054906101000a900473ffffffffffffffffffffffffffffffffffffffff1673ffffffffffffffffffffffffffffffffffffffff1673ffffffffffffffffffffffffffffffffffffffff1681526020016002820160009054906101000a900473ffffffffffffffffffffffffffffffffffffffff1673ffffffffffffffffffffffffffffffffffffffff1673ffffffffffffffffffffffffffffffffffffffff16815260200160038201548152505090507fe934b6a166c5a1dfd8e354f278d9be746e0fd4d934c7e0242a16f42194d2b9a7816000015133848660400151604051808581526020018473ffffffffffffffffffffffffffffffffffffffff1673ffffffffffffffffffffffffffffffffffffffff1681526020018373ffffffffffffffffffffffffffffffffffffffff1673ffffffffffffffffffffffffffffffffffffffff16815260200182815260200194505050505060405180910390a150505050565b828054600181600116156101000203166002900490600052602060002090601f016020900481019282601f1061134857805160ff1916838001178555611376565b82800160010185558215611376579182015b8281111561137557825182559160200191906001019061135a565b5b50905061138391906114a9565b5090565b6040518060c00160405280600081526020016060815260200160008152602001600073ffffffffffffffffffffffffffffffffffffffff168152602001600015158152602001600081525090565b828054600181600116156101000203166002900490600052602060002090601f016020900481019282601f1061141657805160ff1916838001178555611444565b82800160010185558215611444579182015b82811115611443578251825591602001919060010190611428565b5b50905061145191906114a9565b5090565b604051806080016040528060008152602001600073ffffffffffffffffffffffffffffffffffffffff168152602001600073ffffffffffffffffffffffffffffffffffffffff168152602001600081525090565b6114cb91905b808211156114c75760008160009055506001016114af565b5090565b9056fea265627a7a72315820d3ef5c275769b7ce8c34a61fcaa55606136f466b46e94215f0d55e5ab653d54764736f6c63430005100032",
  "source": "pragma solidity ^0.5.0;\r\n\r\ncontract Land {\r\n    string public name;\r\n    uint256 public plotCount = 0;\r\n    mapping(uint256 => Plot) public plots;\r\n\r\n    struct Plot {\r\n        uint256 id;\r\n        string name;\r\n        uint256 price;\r\n        address payable owner;\r\n        bool onMarket;\r\n        mapping(uint256 => History) history; // history of past owners/sell prices\r\n        uint256 historyLength;\r\n    }\r\n\r\n    struct History {\r\n        uint256 date;\r\n        address buyer;\r\n        address seller;\r\n        uint256 price;\r\n    }\r\n\r\n    event PlotCreated(\r\n        uint256 id,\r\n        string name,\r\n        uint256 price,\r\n        address payable owner,\r\n        bool onMarket\r\n    );\r\n\r\n    event PlotPurchased(\r\n        uint256 id,\r\n        string name,\r\n        uint256 price,\r\n        address payable owner,\r\n        bool onMarket\r\n    );\r\n\r\n    event HistoryUpdated(\r\n        uint256 date,\r\n        address buyer,\r\n        address seller,\r\n        uint256 price\r\n    );\r\n\r\n    // bool onMarket\r\n    constructor() public {\r\n        name = \"Etherverse\";\r\n    }\r\n\r\n    function createPlot(string memory _name, uint256 _price) public {\r\n        // require valid name & price\r\n        require(bytes(_name).length > 0);\r\n        // require(_price > 0);\r\n\r\n        // update plot count, create new plot\r\n        plotCount++;\r\n        plots[plotCount] = Plot(plotCount, _name, _price, msg.sender, false, 0);\r\n\r\n        // trigger event - plot created\r\n        emit PlotCreated(plotCount, _name, _price, msg.sender, false);\r\n    }\r\n\r\n    function purchasePlot(uint256 _id) public payable {\r\n        // fetch plot & owner\r\n        Plot memory _plot = plots[_id];\r\n        address payable _seller = _plot.owner;\r\n\r\n        // requirements: valid id, enough ether, product on market, buyer != seller\r\n        require(_plot.id > 0 && _plot.id <= plotCount);\r\n        require(msg.value >= _plot.price);\r\n        require(_plot.onMarket);\r\n        require(_seller != msg.sender);\r\n\r\n        // transfer ownership to buyer, take off market\r\n        _plot.owner = msg.sender;\r\n        _plot.onMarket = false;\r\n\r\n        // update plot\r\n        plots[_id] = _plot;\r\n\r\n        // pay seller by sending them Ether\r\n        address(_seller).transfer(msg.value);\r\n\r\n        // push to history array\r\n        plots[_id].historyLength++;\r\n        plots[_id].history[plots[_id].historyLength] = History(\r\n            block.timestamp,\r\n            msg.sender,\r\n            _seller,\r\n            _plot.price\r\n        );\r\n\r\n        // trigger event - plot purchased\r\n        emit PlotPurchased(\r\n            plotCount,\r\n            _plot.name,\r\n            _plot.price,\r\n            msg.sender,\r\n            false\r\n        );\r\n\r\n        // trigger another event - history updated\r\n        History memory _h = plots[_id].history[plots[_id].historyLength];\r\n        emit HistoryUpdated(_h.date, msg.sender, _seller, _plot.price);\r\n    }\r\n\r\n    // change price of plot of land\r\n    function changePrice(uint256 _id, uint256 _newPrice) public returns (bool) {\r\n        // fetch plot & owner\r\n        Plot memory _plot = plots[_id];\r\n        address payable _seller = _plot.owner;\r\n\r\n        // require request is from owner\r\n        require(_seller == msg.sender);\r\n\r\n        // update price\r\n        plots[_id].price = _newPrice;\r\n\r\n        return true;\r\n    }\r\n\r\n    // change name of plot of land\r\n    function changeName(uint256 _id, string memory _newName)\r\n        public\r\n        returns (bool)\r\n    {\r\n        // require request is from owner\r\n        require(plots[_id].owner == msg.sender);\r\n\r\n        // update name\r\n        plots[_id].name = _newName;\r\n\r\n        return true;\r\n    }\r\n\r\n    // put plot on/off market\r\n    function listPlot(uint256 _id) public returns (bool) {\r\n        // require request is from owner\r\n        require(plots[_id].owner == msg.sender);\r\n\r\n        // change market status\r\n        plots[_id].onMarket = !plots[_id].onMarket;\r\n\r\n        return true;\r\n    }\r\n}\r\n",
  "sourcePath": "C:\\Users\\kulka\\Documents\\GitHub\\etherverse\\backend\\src\\contracts\\Land.sol",
  "compiler": {
    "name": "solc",
    "version": "0.5.16+commit.9c3226ce.Emscripten.clang"
  },
  "schemaVersion": "3.4.7",
  "updatedAt": "2022-05-02T04:40:48.350Z",
  "devdoc": {
    "methods": {}
  },
  "userdoc": {
    "methods": {}
  }
}