{
  "contractName": "Land",
  "abi": [
    {
      "constant": true,
      "inputs": [],
      "name": "name",
      "outputs": [
        {
          "name": "",
          "type": "string"
        }
      ],
      "payable": false,
      "stateMutability": "view",
      "type": "function",
      "signature": "0x06fdde03"
    },
    {
      "constant": true,
      "inputs": [],
      "name": "plotCount",
      "outputs": [
        {
          "name": "",
          "type": "uint256"
        }
      ],
      "payable": false,
      "stateMutability": "view",
      "type": "function",
      "signature": "0x32c55e11"
    },
    {
      "constant": true,
      "inputs": [
        {
          "name": "",
          "type": "uint256"
        }
      ],
      "name": "plots",
      "outputs": [
        {
          "name": "id",
          "type": "uint256"
        },
        {
          "name": "name",
          "type": "string"
        },
        {
          "name": "price",
          "type": "uint256"
        },
        {
          "name": "owner",
          "type": "address"
        },
        {
          "name": "onMarket",
          "type": "bool"
        },
        {
          "name": "historyLength",
          "type": "uint256"
        }
      ],
      "payable": false,
      "stateMutability": "view",
      "type": "function",
      "signature": "0x61bf49ee"
    },
    {
      "inputs": [],
      "payable": false,
      "stateMutability": "nonpayable",
      "type": "constructor",
      "signature": "constructor"
    },
    {
      "anonymous": false,
      "inputs": [
        {
          "indexed": false,
          "name": "id",
          "type": "uint256"
        },
        {
          "indexed": false,
          "name": "name",
          "type": "string"
        },
        {
          "indexed": false,
          "name": "price",
          "type": "uint256"
        },
        {
          "indexed": false,
          "name": "owner",
          "type": "address"
        },
        {
          "indexed": false,
          "name": "onMarket",
          "type": "bool"
        }
      ],
      "name": "PlotCreated",
      "type": "event",
      "signature": "0xb29353bddb7cdcf126a1073d7bf784cca98f9474dc0d64a59435ed90a2a3ef5a"
    },
    {
      "anonymous": false,
      "inputs": [
        {
          "indexed": false,
          "name": "id",
          "type": "uint256"
        },
        {
          "indexed": false,
          "name": "name",
          "type": "string"
        },
        {
          "indexed": false,
          "name": "price",
          "type": "uint256"
        },
        {
          "indexed": false,
          "name": "owner",
          "type": "address"
        },
        {
          "indexed": false,
          "name": "onMarket",
          "type": "bool"
        }
      ],
      "name": "PlotPurchased",
      "type": "event",
      "signature": "0x90eae92d3479da9f90e12ccb37d12718e13c02904c6e3b37bba0e77705082837"
    },
    {
      "anonymous": false,
      "inputs": [
        {
          "indexed": false,
          "name": "date",
          "type": "uint256"
        },
        {
          "indexed": false,
          "name": "buyer",
          "type": "address"
        },
        {
          "indexed": false,
          "name": "seller",
          "type": "address"
        },
        {
          "indexed": false,
          "name": "price",
          "type": "uint256"
        }
      ],
      "name": "HistoryUpdated",
      "type": "event",
      "signature": "0xe934b6a166c5a1dfd8e354f278d9be746e0fd4d934c7e0242a16f42194d2b9a7"
    },
    {
      "constant": false,
      "inputs": [
        {
          "name": "_id",
          "type": "uint256"
        }
      ],
      "name": "purchasePlot",
      "outputs": [],
      "payable": true,
      "stateMutability": "payable",
      "type": "function",
      "signature": "0xd0f11ea1"
    },
    {
      "constant": false,
      "inputs": [
        {
          "name": "_id",
          "type": "uint256"
        },
        {
          "name": "_newPrice",
          "type": "uint256"
        }
      ],
      "name": "changePrice",
      "outputs": [
        {
          "name": "",
          "type": "bool"
        }
      ],
      "payable": false,
      "stateMutability": "nonpayable",
      "type": "function",
      "signature": "0xb3de019c"
    },
    {
      "constant": false,
      "inputs": [
        {
          "name": "_id",
          "type": "uint256"
        },
        {
          "name": "_newName",
          "type": "string"
        }
      ],
      "name": "changeName",
      "outputs": [
        {
          "name": "",
          "type": "bool"
        }
      ],
      "payable": false,
      "stateMutability": "nonpayable",
      "type": "function",
      "signature": "0xc39cbef1"
    },
    {
      "constant": false,
      "inputs": [
        {
          "name": "_id",
          "type": "uint256"
        }
      ],
      "name": "listPlot",
      "outputs": [
        {
          "name": "",
          "type": "bool"
        }
      ],
      "payable": false,
      "stateMutability": "nonpayable",
      "type": "function",
      "signature": "0x5d2711cc"
    },
    {
      "constant": true,
      "inputs": [],
      "name": "getPlots",
      "outputs": [
        {
          "name": "",
          "type": "uint256[]"
        }
      ],
      "payable": false,
      "stateMutability": "view",
      "type": "function",
      "signature": "0xf9cf80a9"
    }
  ],
  "bytecode": "0x608060405260006001553480156200001657600080fd5b506040805190810160405280600a81526020017f45746865727665727365000000000000000000000000000000000000000000008152506000908051906020019062000064929190620002fa565b5060008090505b6090811015620000d457620000c66040805190810160405280600481526020017f506c6f74000000000000000000000000000000000000000000000000000000008152506000620000db640100000000026401000000009004565b80806001019150506200006b565b5062000430565b60008251111515620000ec57600080fd5b60016000815480929190600101919050555060c06040519081016040528060015481526020018381526020018281526020013373ffffffffffffffffffffffffffffffffffffffff16815260200160011515815260200160008152506002600060015481526020019081526020016000206000820151816000015560208201518160010190805190602001906200018592919062000381565b506040820151816002015560608201518160030160006101000a81548173ffffffffffffffffffffffffffffffffffffffff021916908373ffffffffffffffffffffffffffffffffffffffff16021790555060808201518160030160146101000a81548160ff02191690831515021790555060a082015181600501559050507fb29353bddb7cdcf126a1073d7bf784cca98f9474dc0d64a59435ed90a2a3ef5a600154838333600160405180868152602001806020018581526020018473ffffffffffffffffffffffffffffffffffffffff1673ffffffffffffffffffffffffffffffffffffffff16815260200183151515158152602001828103825286818151815260200191508051906020019080838360005b83811015620002b75780820151818401526020810190506200029a565b50505050905090810190601f168015620002e55780820380516001836020036101000a031916815260200191505b50965050505050505060405180910390a15050565b828054600181600116156101000203166002900490600052602060002090601f016020900481019282601f106200033d57805160ff19168380011785556200036e565b828001600101855582156200036e579182015b828111156200036d57825182559160200191906001019062000350565b5b5090506200037d919062000408565b5090565b828054600181600116156101000203166002900490600052602060002090601f016020900481019282601f10620003c457805160ff1916838001178555620003f5565b82800160010185558215620003f5579182015b82811115620003f4578251825591602001919060010190620003d7565b5b50905062000404919062000408565b5090565b6200042d91905b80821115620004295760008160009055506001016200040f565b5090565b90565b61104180620004406000396000f3fe60806040526004361061008e576000357c0100000000000000000000000000000000000000000000000000000000900463ffffffff16806306fdde031461009357806332c55e11146101235780635d2711cc1461014e57806361bf49ee146101a1578063b3de019c146102a8578063c39cbef114610305578063d0f11ea1146103ef578063f9cf80a91461041d575b600080fd5b34801561009f57600080fd5b506100a8610489565b6040518080602001828103825283818151815260200191508051906020019080838360005b838110156100e85780820151818401526020810190506100cd565b50505050905090810190601f1680156101155780820380516001836020036101000a031916815260200191505b509250505060405180910390f35b34801561012f57600080fd5b50610138610527565b6040518082815260200191505060405180910390f35b34801561015a57600080fd5b506101876004803603602081101561017157600080fd5b810190808035906020019092919050505061052d565b604051808215151515815260200191505060405180910390f35b3480156101ad57600080fd5b506101da600480360360208110156101c457600080fd5b81019080803590602001909291905050506105fa565b60405180878152602001806020018681526020018573ffffffffffffffffffffffffffffffffffffffff1673ffffffffffffffffffffffffffffffffffffffff16815260200184151515158152602001838152602001828103825287818151815260200191508051906020019080838360005b8381101561026857808201518184015260208101905061024d565b50505050905090810190601f1680156102955780820380516001836020036101000a031916815260200191505b5097505050505050505060405180910390f35b3480156102b457600080fd5b506102eb600480360360408110156102cb57600080fd5b8101908080359060200190929190803590602001909291905050506106fb565b604051808215151515815260200191505060405180910390f35b34801561031157600080fd5b506103d56004803603604081101561032857600080fd5b81019080803590602001909291908035906020019064010000000081111561034f57600080fd5b82018360208201111561036157600080fd5b8035906020019184600183028401116401000000008311171561038357600080fd5b91908080601f016020809104026020016040519081016040528093929190818152602001838380828437600081840152601f19601f8201169050808301925050505050505091929192905050506108c1565b604051808215151515815260200191505060405180910390f35b61041b6004803603602081101561040557600080fd5b8101908080359060200190929190505050610968565b005b34801561042957600080fd5b50610432610d93565b6040518080602001828103825283818151815260200191508051906020019060200280838360005b8381101561047557808201518184015260208101905061045a565b505050509050019250505060405180910390f35b60008054600181600116156101000203166002900480601f01602080910402602001604051908101604052809291908181526020018280546001816001161561010002031660029004801561051f5780601f106104f45761010080835404028352916020019161051f565b820191906000526020600020905b81548152906001019060200180831161050257829003601f168201915b505050505081565b60015481565b60003373ffffffffffffffffffffffffffffffffffffffff166002600084815260200190815260200160002060030160009054906101000a900473ffffffffffffffffffffffffffffffffffffffff1673ffffffffffffffffffffffffffffffffffffffff1614151561059f57600080fd5b6002600083815260200190815260200160002060030160149054906101000a900460ff16156002600084815260200190815260200160002060030160146101000a81548160ff02191690831515021790555060019050919050565b6002602052806000526040600020600091509050806000015490806001018054600181600116156101000203166002900480601f0160208091040260200160405190810160405280929190818152602001828054600181600116156101000203166002900480156106ac5780601f10610681576101008083540402835291602001916106ac565b820191906000526020600020905b81548152906001019060200180831161068f57829003601f168201915b5050505050908060020154908060030160009054906101000a900473ffffffffffffffffffffffffffffffffffffffff16908060030160149054906101000a900460ff16908060050154905086565b6000610705610ea1565b6002600085815260200190815260200160002060c0604051908101604052908160008201548152602001600182018054600181600116156101000203166002900480601f0160208091040260200160405190810160405280929190818152602001828054600181600116156101000203166002900480156107c75780601f1061079c576101008083540402835291602001916107c7565b820191906000526020600020905b8154815290600101906020018083116107aa57829003601f168201915b50505050508152602001600282015481526020016003820160009054906101000a900473ffffffffffffffffffffffffffffffffffffffff1673ffffffffffffffffffffffffffffffffffffffff1673ffffffffffffffffffffffffffffffffffffffff1681526020016003820160149054906101000a900460ff1615151515815260200160058201548152505090506000816060015190503373ffffffffffffffffffffffffffffffffffffffff168173ffffffffffffffffffffffffffffffffffffffff1614151561089a57600080fd5b83600260008781526020019081526020016000206002018190555060019250505092915050565b60003373ffffffffffffffffffffffffffffffffffffffff166002600085815260200190815260200160002060030160009054906101000a900473ffffffffffffffffffffffffffffffffffffffff1673ffffffffffffffffffffffffffffffffffffffff1614151561093357600080fd5b8160026000858152602001908152602001600020600101908051906020019061095d929190610ef0565b506001905092915050565b610970610ea1565b6002600083815260200190815260200160002060c0604051908101604052908160008201548152602001600182018054600181600116156101000203166002900480601f016020809104026020016040519081016040528092919081815260200182805460018160011615610100020316600290048015610a325780601f10610a0757610100808354040283529160200191610a32565b820191906000526020600020905b815481529060010190602001808311610a1557829003601f168201915b50505050508152602001600282015481526020016003820160009054906101000a900473ffffffffffffffffffffffffffffffffffffffff1673ffffffffffffffffffffffffffffffffffffffff1673ffffffffffffffffffffffffffffffffffffffff1681526020016003820160149054906101000a900460ff16151515158152602001600582015481525050905060008160600151905060008260000151118015610ae55750600154826000015111155b1515610af057600080fd5b81604001513410151515610b0357600080fd5b81608001511515610b1357600080fd5b3373ffffffffffffffffffffffffffffffffffffffff168173ffffffffffffffffffffffffffffffffffffffff1614151515610b4e57600080fd5b33826060019073ffffffffffffffffffffffffffffffffffffffff16908173ffffffffffffffffffffffffffffffffffffffff168152505060008260800190151590811515815250508160026000858152602001908152602001600020600082015181600001556020820151816001019080519060200190610bd1929190610f70565b506040820151816002015560608201518160030160006101000a81548173ffffffffffffffffffffffffffffffffffffffff021916908373ffffffffffffffffffffffffffffffffffffffff16021790555060808201518160030160146101000a81548160ff02191690831515021790555060a082015181600501559050508073ffffffffffffffffffffffffffffffffffffffff166108fc349081150290604051600060405180830381858888f19350505050158015610c96573d6000803e3d6000fd5b507f90eae92d3479da9f90e12ccb37d12718e13c02904c6e3b37bba0e777050828376001548360200151846040015133600060405180868152602001806020018581526020018473ffffffffffffffffffffffffffffffffffffffff1673ffffffffffffffffffffffffffffffffffffffff16815260200183151515158152602001828103825286818151815260200191508051906020019080838360005b83811015610d50578082015181840152602081019050610d35565b50505050905090810190601f168015610d7d5780820380516001836020036101000a031916815260200191505b50965050505050505060405180910390a1505050565b606080600154604051908082528060200260200182016040528015610dc75781602001602082028038833980820191505090505b509050600080905060008090505b600154811015610e98573373ffffffffffffffffffffffffffffffffffffffff166002600083815260200190815260200160002060030160009054906101000a900473ffffffffffffffffffffffffffffffffffffffff1673ffffffffffffffffffffffffffffffffffffffff16141515610e4f57610e8b565b60026000828152602001908152602001600020600001548383815181101515610e7457fe5b906020019060200201818152505081806001019250505b8080600101915050610dd5565b50819250505090565b60c060405190810160405280600081526020016060815260200160008152602001600073ffffffffffffffffffffffffffffffffffffffff168152602001600015158152602001600081525090565b828054600181600116156101000203166002900490600052602060002090601f016020900481019282601f10610f3157805160ff1916838001178555610f5f565b82800160010185558215610f5f579182015b82811115610f5e578251825591602001919060010190610f43565b5b509050610f6c9190610ff0565b5090565b828054600181600116156101000203166002900490600052602060002090601f016020900481019282601f10610fb157805160ff1916838001178555610fdf565b82800160010185558215610fdf579182015b82811115610fde578251825591602001919060010190610fc3565b5b509050610fec9190610ff0565b5090565b61101291905b8082111561100e576000816000905550600101610ff6565b5090565b9056fea165627a7a72305820c0c45477f06a305bb3d78c7a666a22431c5d7eb319dfc3d1f2570e55e666c6060029",
  "source": "pragma solidity ^0.5.0;\n\ncontract Land {\n    string public name;\n    uint256 public plotCount = 0;\n    mapping(uint256 => Plot) public plots;\n\n    struct Plot {\n        uint256 id;\n        string name;\n        uint256 price;\n        address payable owner;\n        bool onMarket;\n        mapping(uint256 => History) history; // history of past owners/sell prices\n        uint256 historyLength;\n    }\n\n    struct History {\n        uint256 date;\n        address buyer;\n        address seller;\n        uint256 price;\n    }\n\n    event PlotCreated(\n        uint256 id,\n        string name,\n        uint256 price,\n        address payable owner,\n        bool onMarket\n    );\n\n    event PlotPurchased(\n        uint256 id,\n        string name,\n        uint256 price,\n        address payable owner,\n        bool onMarket\n    );\n\n    event HistoryUpdated(\n        uint256 date,\n        address buyer,\n        address seller,\n        uint256 price\n    );\n\n    // bool onMarket\n    constructor() public {\n        name = \"Etherverse\";\n        for (uint256 i = 0; i < 144; i++) {\n            createPlot(\"Plot\", 0);\n        }\n    }\n\n    function createPlot(string memory _name, uint256 _price) internal {\n        // require valid name & price\n        require(bytes(_name).length > 0);\n        // require(_price > 0);\n\n        // update plot count, create new plot\n        plotCount++;\n        plots[plotCount] = Plot(plotCount, _name, _price, msg.sender, true, 0);\n\n        // trigger event - plot created\n        emit PlotCreated(plotCount, _name, _price, msg.sender, true);\n    }\n\n    function purchasePlot(uint256 _id) public payable {\n        // fetch plot & owner\n        Plot memory _plot = plots[_id];\n        address payable _seller = _plot.owner;\n\n        // requirements: valid id, enough ether, product on market, buyer != seller\n        require(_plot.id > 0 && _plot.id <= plotCount);\n        require(msg.value >= _plot.price);\n        require(_plot.onMarket);\n        require(_seller != msg.sender);\n\n        // transfer ownership to buyer, take off market\n        _plot.owner = msg.sender;\n        _plot.onMarket = false;\n\n        // update plot\n        plots[_id] = _plot;\n\n        // pay seller by sending them Ether\n        address(_seller).transfer(msg.value);\n\n        // push to history array\n        // plots[_id].historyLength++;\n        // plots[_id].history[plots[_id].historyLength - 1] = History(\n        //     block.timestamp,\n        //     msg.sender,\n        //     _seller,\n        //     _plot.price\n        // );\n\n        // trigger event - plot purchased\n        emit PlotPurchased(\n            plotCount,\n            _plot.name,\n            _plot.price,\n            msg.sender,\n            false\n        );\n\n        // trigger another event - history updated\n        // History memory _h = plots[_id].history[plots[_id].historyLength];\n        // emit HistoryUpdated(_h.date, msg.sender, _seller, _plot.price);\n    }\n\n    // change price of plot of land\n    function changePrice(uint256 _id, uint256 _newPrice) public returns (bool) {\n        // fetch plot & owner\n        Plot memory _plot = plots[_id];\n        address payable _seller = _plot.owner;\n\n        // require request is from owner\n        require(_seller == msg.sender);\n\n        // update price\n        plots[_id].price = _newPrice;\n\n        return true;\n    }\n\n    // change name of plot of land\n    function changeName(uint256 _id, string memory _newName)\n        public\n        returns (bool)\n    {\n        // require request is from owner\n        require(plots[_id].owner == msg.sender);\n\n        // update name\n        plots[_id].name = _newName;\n\n        return true;\n    }\n\n    // put plot on/off market\n    function listPlot(uint256 _id) public returns (bool) {\n        // require request is from owner\n        require(plots[_id].owner == msg.sender);\n\n        // change market status\n        plots[_id].onMarket = !plots[_id].onMarket;\n\n        return true;\n    }\n\n    // get all plots owned by msg.sender\n    function getPlots() public view returns (uint256[] memory) {\n        uint256[] memory myPlots = new uint256[](plotCount);\n\n        uint256 n = 0;\n        for (uint256 i = 0; i < plotCount; i++) {\n            if (plots[i].owner != msg.sender) continue;\n\n            myPlots[n] = (plots[i].id);\n            n++;\n        }\n\n        return myPlots;\n    }\n}\n",
  "sourcePath": "/Users/joanna.kuo/Documents/GitHub/etherverse/backend/src/contracts/Land.sol",
  "compiler": {
    "name": "solc",
    "version": "0.5.0+commit.1d4f565a.Emscripten.clang"
  },
  "schemaVersion": "3.0.1",
  "updatedAt": "2022-05-03T14:36:49.812Z",
  "devdoc": {
    "methods": {}
  },
  "userdoc": {
    "methods": {}
  }
}