{
  "contractName": "Land",
  "abi": [
    {
      "constant": true,
      "inputs": [],
      "name": "name",
      "outputs": [
        {
          "name": "",
          "type": "string"
        }
      ],
      "payable": false,
      "stateMutability": "view",
      "type": "function",
      "signature": "0x06fdde03"
    },
    {
      "constant": true,
      "inputs": [],
      "name": "plotCount",
      "outputs": [
        {
          "name": "",
          "type": "uint256"
        }
      ],
      "payable": false,
      "stateMutability": "view",
      "type": "function",
      "signature": "0x32c55e11"
    },
    {
      "constant": true,
      "inputs": [
        {
          "name": "",
          "type": "uint256"
        }
      ],
      "name": "plots",
      "outputs": [
        {
          "name": "id",
          "type": "uint256"
        },
        {
          "name": "name",
          "type": "string"
        },
        {
          "name": "price",
          "type": "uint256"
        },
        {
          "name": "owner",
          "type": "address"
        },
        {
          "name": "onMarket",
          "type": "bool"
        },
        {
          "name": "historyLength",
          "type": "uint256"
        }
      ],
      "payable": false,
      "stateMutability": "view",
      "type": "function",
      "signature": "0x61bf49ee"
    },
    {
      "inputs": [],
      "payable": false,
      "stateMutability": "nonpayable",
      "type": "constructor",
      "signature": "constructor"
    },
    {
      "anonymous": false,
      "inputs": [
        {
          "indexed": false,
          "name": "id",
          "type": "uint256"
        },
        {
          "indexed": false,
          "name": "name",
          "type": "string"
        },
        {
          "indexed": false,
          "name": "price",
          "type": "uint256"
        },
        {
          "indexed": false,
          "name": "owner",
          "type": "address"
        },
        {
          "indexed": false,
          "name": "onMarket",
          "type": "bool"
        }
      ],
      "name": "PlotCreated",
      "type": "event",
      "signature": "0xb29353bddb7cdcf126a1073d7bf784cca98f9474dc0d64a59435ed90a2a3ef5a"
    },
    {
      "anonymous": false,
      "inputs": [
        {
          "indexed": false,
          "name": "id",
          "type": "uint256"
        },
        {
          "indexed": false,
          "name": "name",
          "type": "string"
        },
        {
          "indexed": false,
          "name": "price",
          "type": "uint256"
        },
        {
          "indexed": false,
          "name": "owner",
          "type": "address"
        },
        {
          "indexed": false,
          "name": "onMarket",
          "type": "bool"
        }
      ],
      "name": "PlotPurchased",
      "type": "event",
      "signature": "0x90eae92d3479da9f90e12ccb37d12718e13c02904c6e3b37bba0e77705082837"
    },
    {
      "anonymous": false,
      "inputs": [
        {
          "indexed": false,
          "name": "date",
          "type": "uint256"
        },
        {
          "indexed": false,
          "name": "buyer",
          "type": "address"
        },
        {
          "indexed": false,
          "name": "seller",
          "type": "address"
        },
        {
          "indexed": false,
          "name": "price",
          "type": "uint256"
        }
      ],
      "name": "HistoryUpdated",
      "type": "event",
      "signature": "0xe934b6a166c5a1dfd8e354f278d9be746e0fd4d934c7e0242a16f42194d2b9a7"
    },
    {
      "constant": false,
      "inputs": [
        {
          "name": "_id",
          "type": "uint256"
        }
      ],
      "name": "purchasePlot",
      "outputs": [],
      "payable": true,
      "stateMutability": "payable",
      "type": "function",
      "signature": "0xd0f11ea1"
    },
    {
      "constant": false,
      "inputs": [
        {
          "name": "_id",
          "type": "uint256"
        },
        {
          "name": "_newPrice",
          "type": "uint256"
        }
      ],
      "name": "changePrice",
      "outputs": [
        {
          "name": "",
          "type": "bool"
        }
      ],
      "payable": false,
      "stateMutability": "nonpayable",
      "type": "function",
      "signature": "0xb3de019c"
    },
    {
      "constant": false,
      "inputs": [
        {
          "name": "_id",
          "type": "uint256"
        },
        {
          "name": "_newName",
          "type": "string"
        }
      ],
      "name": "changeName",
      "outputs": [
        {
          "name": "",
          "type": "bool"
        }
      ],
      "payable": false,
      "stateMutability": "nonpayable",
      "type": "function",
      "signature": "0xc39cbef1"
    },
    {
      "constant": false,
      "inputs": [
        {
          "name": "_id",
          "type": "uint256"
        }
      ],
      "name": "listPlot",
      "outputs": [
        {
          "name": "",
          "type": "bool"
        }
      ],
      "payable": false,
      "stateMutability": "nonpayable",
      "type": "function",
      "signature": "0x5d2711cc"
    }
  ],
  "bytecode": "0x608060405260006001553480156200001657600080fd5b506040805190810160405280600a81526020017f45746865727665727365000000000000000000000000000000000000000000008152506000908051906020019062000064929190620002fa565b5060008090505b600a811015620000d457620000c66040805190810160405280600481526020017f506c6f74000000000000000000000000000000000000000000000000000000008152506000620000db640100000000026401000000009004565b80806001019150506200006b565b5062000430565b60008251111515620000ec57600080fd5b60016000815480929190600101919050555060c06040519081016040528060015481526020018381526020018281526020013373ffffffffffffffffffffffffffffffffffffffff16815260200160001515815260200160008152506002600060015481526020019081526020016000206000820151816000015560208201518160010190805190602001906200018592919062000381565b506040820151816002015560608201518160030160006101000a81548173ffffffffffffffffffffffffffffffffffffffff021916908373ffffffffffffffffffffffffffffffffffffffff16021790555060808201518160030160146101000a81548160ff02191690831515021790555060a082015181600501559050507fb29353bddb7cdcf126a1073d7bf784cca98f9474dc0d64a59435ed90a2a3ef5a600154838333600060405180868152602001806020018581526020018473ffffffffffffffffffffffffffffffffffffffff1673ffffffffffffffffffffffffffffffffffffffff16815260200183151515158152602001828103825286818151815260200191508051906020019080838360005b83811015620002b75780820151818401526020810190506200029a565b50505050905090810190601f168015620002e55780820380516001836020036101000a031916815260200191505b50965050505050505060405180910390a15050565b828054600181600116156101000203166002900490600052602060002090601f016020900481019282601f106200033d57805160ff19168380011785556200036e565b828001600101855582156200036e579182015b828111156200036d57825182559160200191906001019062000350565b5b5090506200037d919062000408565b5090565b828054600181600116156101000203166002900490600052602060002090601f016020900481019282601f10620003c457805160ff1916838001178555620003f5565b82800160010185558215620003f5579182015b82811115620003f4578251825591602001919060010190620003d7565b5b50905062000404919062000408565b5090565b6200042d91905b80821115620004295760008160009055506001016200040f565b5090565b90565b61122e80620004406000396000f3fe608060405260043610610083576000357c0100000000000000000000000000000000000000000000000000000000900463ffffffff16806306fdde031461008857806332c55e11146101185780635d2711cc1461014357806361bf49ee14610196578063b3de019c1461029d578063c39cbef1146102fa578063d0f11ea1146103e4575b600080fd5b34801561009457600080fd5b5061009d610412565b6040518080602001828103825283818151815260200191508051906020019080838360005b838110156100dd5780820151818401526020810190506100c2565b50505050905090810190601f16801561010a5780820380516001836020036101000a031916815260200191505b509250505060405180910390f35b34801561012457600080fd5b5061012d6104b0565b6040518082815260200191505060405180910390f35b34801561014f57600080fd5b5061017c6004803603602081101561016657600080fd5b81019080803590602001909291905050506104b6565b604051808215151515815260200191505060405180910390f35b3480156101a257600080fd5b506101cf600480360360208110156101b957600080fd5b8101908080359060200190929190505050610583565b60405180878152602001806020018681526020018573ffffffffffffffffffffffffffffffffffffffff1673ffffffffffffffffffffffffffffffffffffffff16815260200184151515158152602001838152602001828103825287818151815260200191508051906020019080838360005b8381101561025d578082015181840152602081019050610242565b50505050905090810190601f16801561028a5780820380516001836020036101000a031916815260200191505b5097505050505050505060405180910390f35b3480156102a957600080fd5b506102e0600480360360408110156102c057600080fd5b810190808035906020019092919080359060200190929190505050610684565b604051808215151515815260200191505060405180910390f35b34801561030657600080fd5b506103ca6004803603604081101561031d57600080fd5b81019080803590602001909291908035906020019064010000000081111561034457600080fd5b82018360208201111561035657600080fd5b8035906020019184600183028401116401000000008311171561037857600080fd5b91908080601f016020809104026020016040519081016040528093929190818152602001838380828437600081840152601f19601f82011690508083019250505050505050919291929050505061084a565b604051808215151515815260200191505060405180910390f35b610410600480360360208110156103fa57600080fd5b81019080803590602001909291905050506108f1565b005b60008054600181600116156101000203166002900480601f0160208091040260200160405190810160405280929190818152602001828054600181600116156101000203166002900480156104a85780601f1061047d576101008083540402835291602001916104a8565b820191906000526020600020905b81548152906001019060200180831161048b57829003601f168201915b505050505081565b60015481565b60003373ffffffffffffffffffffffffffffffffffffffff166002600084815260200190815260200160002060030160009054906101000a900473ffffffffffffffffffffffffffffffffffffffff1673ffffffffffffffffffffffffffffffffffffffff1614151561052857600080fd5b6002600083815260200190815260200160002060030160149054906101000a900460ff16156002600084815260200190815260200160002060030160146101000a81548160ff02191690831515021790555060019050919050565b6002602052806000526040600020600091509050806000015490806001018054600181600116156101000203166002900480601f0160208091040260200160405190810160405280929190818152602001828054600181600116156101000203166002900480156106355780601f1061060a57610100808354040283529160200191610635565b820191906000526020600020905b81548152906001019060200180831161061857829003601f168201915b5050505050908060020154908060030160009054906101000a900473ffffffffffffffffffffffffffffffffffffffff16908060030160149054906101000a900460ff16908060050154905086565b600061068e611039565b6002600085815260200190815260200160002060c0604051908101604052908160008201548152602001600182018054600181600116156101000203166002900480601f0160208091040260200160405190810160405280929190818152602001828054600181600116156101000203166002900480156107505780601f1061072557610100808354040283529160200191610750565b820191906000526020600020905b81548152906001019060200180831161073357829003601f168201915b50505050508152602001600282015481526020016003820160009054906101000a900473ffffffffffffffffffffffffffffffffffffffff1673ffffffffffffffffffffffffffffffffffffffff1673ffffffffffffffffffffffffffffffffffffffff1681526020016003820160149054906101000a900460ff1615151515815260200160058201548152505090506000816060015190503373ffffffffffffffffffffffffffffffffffffffff168173ffffffffffffffffffffffffffffffffffffffff1614151561082357600080fd5b83600260008781526020019081526020016000206002018190555060019250505092915050565b60003373ffffffffffffffffffffffffffffffffffffffff166002600085815260200190815260200160002060030160009054906101000a900473ffffffffffffffffffffffffffffffffffffffff1673ffffffffffffffffffffffffffffffffffffffff161415156108bc57600080fd5b816002600085815260200190815260200160002060010190805190602001906108e6929190611088565b506001905092915050565b6108f9611039565b6002600083815260200190815260200160002060c0604051908101604052908160008201548152602001600182018054600181600116156101000203166002900480601f0160208091040260200160405190810160405280929190818152602001828054600181600116156101000203166002900480156109bb5780601f10610990576101008083540402835291602001916109bb565b820191906000526020600020905b81548152906001019060200180831161099e57829003601f168201915b50505050508152602001600282015481526020016003820160009054906101000a900473ffffffffffffffffffffffffffffffffffffffff1673ffffffffffffffffffffffffffffffffffffffff1673ffffffffffffffffffffffffffffffffffffffff1681526020016003820160149054906101000a900460ff16151515158152602001600582015481525050905060008160600151905060008260000151118015610a6e5750600154826000015111155b1515610a7957600080fd5b81604001513410151515610a8c57600080fd5b81608001511515610a9c57600080fd5b3373ffffffffffffffffffffffffffffffffffffffff168173ffffffffffffffffffffffffffffffffffffffff1614151515610ad757600080fd5b33826060019073ffffffffffffffffffffffffffffffffffffffff16908173ffffffffffffffffffffffffffffffffffffffff168152505060008260800190151590811515815250508160026000858152602001908152602001600020600082015181600001556020820151816001019080519060200190610b5a929190611108565b506040820151816002015560608201518160030160006101000a81548173ffffffffffffffffffffffffffffffffffffffff021916908373ffffffffffffffffffffffffffffffffffffffff16021790555060808201518160030160146101000a81548160ff02191690831515021790555060a082015181600501559050508073ffffffffffffffffffffffffffffffffffffffff166108fc349081150290604051600060405180830381858888f19350505050158015610c1f573d6000803e3d6000fd5b5060026000848152602001908152602001600020600501600081548092919060010191905055506080604051908101604052804281526020013373ffffffffffffffffffffffffffffffffffffffff1681526020018273ffffffffffffffffffffffffffffffffffffffff1681526020018360400151815250600260008581526020019081526020016000206004016000600260008781526020019081526020016000206005015481526020019081526020016000206000820151816000015560208201518160010160006101000a81548173ffffffffffffffffffffffffffffffffffffffff021916908373ffffffffffffffffffffffffffffffffffffffff16021790555060408201518160020160006101000a81548173ffffffffffffffffffffffffffffffffffffffff021916908373ffffffffffffffffffffffffffffffffffffffff160217905550606082015181600301559050507f90eae92d3479da9f90e12ccb37d12718e13c02904c6e3b37bba0e777050828376001548360200151846040015133600060405180868152602001806020018581526020018473ffffffffffffffffffffffffffffffffffffffff1673ffffffffffffffffffffffffffffffffffffffff16815260200183151515158152602001828103825286818151815260200191508051906020019080838360005b83811015610e33578082015181840152602081019050610e18565b50505050905090810190601f168015610e605780820380516001836020036101000a031916815260200191505b50965050505050505060405180910390a1610e79611188565b6002600085815260200190815260200160002060040160006002600087815260200190815260200160002060050154815260200190815260200160002060806040519081016040529081600082015481526020016001820160009054906101000a900473ffffffffffffffffffffffffffffffffffffffff1673ffffffffffffffffffffffffffffffffffffffff1673ffffffffffffffffffffffffffffffffffffffff1681526020016002820160009054906101000a900473ffffffffffffffffffffffffffffffffffffffff1673ffffffffffffffffffffffffffffffffffffffff1673ffffffffffffffffffffffffffffffffffffffff16815260200160038201548152505090507fe934b6a166c5a1dfd8e354f278d9be746e0fd4d934c7e0242a16f42194d2b9a7816000015133848660400151604051808581526020018473ffffffffffffffffffffffffffffffffffffffff1673ffffffffffffffffffffffffffffffffffffffff1681526020018373ffffffffffffffffffffffffffffffffffffffff1673ffffffffffffffffffffffffffffffffffffffff16815260200182815260200194505050505060405180910390a150505050565b60c060405190810160405280600081526020016060815260200160008152602001600073ffffffffffffffffffffffffffffffffffffffff168152602001600015158152602001600081525090565b828054600181600116156101000203166002900490600052602060002090601f016020900481019282601f106110c957805160ff19168380011785556110f7565b828001600101855582156110f7579182015b828111156110f65782518255916020019190600101906110db565b5b50905061110491906111dd565b5090565b828054600181600116156101000203166002900490600052602060002090601f016020900481019282601f1061114957805160ff1916838001178555611177565b82800160010185558215611177579182015b8281111561117657825182559160200191906001019061115b565b5b50905061118491906111dd565b5090565b60806040519081016040528060008152602001600073ffffffffffffffffffffffffffffffffffffffff168152602001600073ffffffffffffffffffffffffffffffffffffffff168152602001600081525090565b6111ff91905b808211156111fb5760008160009055506001016111e3565b5090565b9056fea165627a7a72305820420aa61dda306512c4fb05a6add480fe1a0dc85fe8783102eaeff4dd2ac69ee80029",
  "source": "pragma solidity ^0.5.0;\n\ncontract Land {\n    string public name;\n    uint256 public plotCount = 0;\n    mapping(uint256 => Plot) public plots;\n\n    struct Plot {\n        uint256 id;\n        string name;\n        uint256 price;\n        address payable owner;\n        bool onMarket;\n        mapping(uint256 => History) history; // history of past owners/sell prices\n        uint256 historyLength;\n    }\n\n    struct History {\n        uint256 date;\n        address buyer;\n        address seller;\n        uint256 price;\n    }\n\n    event PlotCreated(\n        uint256 id,\n        string name,\n        uint256 price,\n        address payable owner,\n        bool onMarket\n    );\n\n    event PlotPurchased(\n        uint256 id,\n        string name,\n        uint256 price,\n        address payable owner,\n        bool onMarket\n    );\n\n    event HistoryUpdated(\n        uint256 date,\n        address buyer,\n        address seller,\n        uint256 price\n    );\n\n    // bool onMarket\n    constructor() public {\n        name = \"Etherverse\";\n        for (uint256 i = 0; i < 10; i++) {\n            createPlot(\"Plot\", 0);\n        }\n    }\n\n    function createPlot(string memory _name, uint256 _price) internal {\n        // require valid name & price\n        require(bytes(_name).length > 0);\n        // require(_price > 0);\n\n        // update plot count, create new plot\n        plotCount++;\n        plots[plotCount] = Plot(plotCount, _name, _price, msg.sender, false, 0);\n\n        // trigger event - plot created\n        emit PlotCreated(plotCount, _name, _price, msg.sender, false);\n    }\n\n    function purchasePlot(uint256 _id) public payable {\n        // fetch plot & owner\n        Plot memory _plot = plots[_id];\n        address payable _seller = _plot.owner;\n\n        // requirements: valid id, enough ether, product on market, buyer != seller\n        require(_plot.id > 0 && _plot.id <= plotCount);\n        require(msg.value >= _plot.price);\n        require(_plot.onMarket);\n        require(_seller != msg.sender);\n\n        // transfer ownership to buyer, take off market\n        _plot.owner = msg.sender;\n        _plot.onMarket = false;\n\n        // update plot\n        plots[_id] = _plot;\n\n        // pay seller by sending them Ether\n        address(_seller).transfer(msg.value);\n\n        // push to history array\n        plots[_id].historyLength++;\n        plots[_id].history[plots[_id].historyLength] = History(\n            block.timestamp,\n            msg.sender,\n            _seller,\n            _plot.price\n        );\n\n        // trigger event - plot purchased\n        emit PlotPurchased(\n            plotCount,\n            _plot.name,\n            _plot.price,\n            msg.sender,\n            false\n        );\n\n        // trigger another event - history updated\n        History memory _h = plots[_id].history[plots[_id].historyLength];\n        emit HistoryUpdated(_h.date, msg.sender, _seller, _plot.price);\n    }\n\n    // change price of plot of land\n    function changePrice(uint256 _id, uint256 _newPrice) public returns (bool) {\n        // fetch plot & owner\n        Plot memory _plot = plots[_id];\n        address payable _seller = _plot.owner;\n\n        // require request is from owner\n        require(_seller == msg.sender);\n\n        // update price\n        plots[_id].price = _newPrice;\n\n        return true;\n    }\n\n    // change name of plot of land\n    function changeName(uint256 _id, string memory _newName)\n        public\n        returns (bool)\n    {\n        // require request is from owner\n        require(plots[_id].owner == msg.sender);\n\n        // update name\n        plots[_id].name = _newName;\n\n        return true;\n    }\n\n    // put plot on/off market\n    function listPlot(uint256 _id) public returns (bool) {\n        // require request is from owner\n        require(plots[_id].owner == msg.sender);\n\n        // change market status\n        plots[_id].onMarket = !plots[_id].onMarket;\n\n        return true;\n    }\n}\n",
  "sourcePath": "/Users/joanna.kuo/Documents/GitHub/etherverse/backend/src/contracts/Land.sol",
  "compiler": {
    "name": "solc",
    "version": "0.5.0+commit.1d4f565a.Emscripten.clang"
  },
  "schemaVersion": "3.0.1",
  "updatedAt": "2022-05-02T06:35:42.460Z",
  "devdoc": {
    "methods": {}
  },
  "userdoc": {
    "methods": {}
  }
}