{
  "contractName": "Land",
  "abi": [
    {
      "constant": true,
      "inputs": [
        {
          "name": "",
          "type": "uint256"
        }
      ],
      "name": "plots",
      "outputs": [
        {
          "name": "id",
          "type": "uint256"
        },
        {
          "name": "name",
          "type": "string"
        },
        {
          "name": "owner",
          "type": "address"
        },
        {
          "name": "price",
          "type": "uint256"
        },
        {
          "name": "onMarket",
          "type": "bool"
        },
        {
          "name": "historyLength",
          "type": "uint256"
        }
      ],
      "payable": false,
      "stateMutability": "view",
      "type": "function",
      "signature": "0x61bf49ee"
    },
    {
      "inputs": [],
      "payable": false,
      "stateMutability": "nonpayable",
      "type": "constructor",
      "signature": "constructor"
    },
    {
      "anonymous": false,
      "inputs": [
        {
          "indexed": true,
          "name": "_from",
          "type": "address"
        },
        {
          "indexed": true,
          "name": "_to",
          "type": "address"
        },
        {
          "indexed": false,
          "name": "_value",
          "type": "uint256"
        }
      ],
      "name": "Approval",
      "type": "event",
      "signature": "0x8c5be1e5ebec7d5bd14f71427d1e84f3dd0314c0f7b2291e5b200ac8c7c3b925"
    },
    {
      "anonymous": false,
      "inputs": [
        {
          "indexed": true,
          "name": "_owner",
          "type": "address"
        },
        {
          "indexed": true,
          "name": "_spender",
          "type": "address"
        },
        {
          "indexed": false,
          "name": "_value",
          "type": "uint256"
        }
      ],
      "name": "Transfer",
      "type": "event",
      "signature": "0xddf252ad1be2c89b69c2b068fc378daa952ba7f163c4a11628f55a4df523b3ef"
    },
    {
      "constant": true,
      "inputs": [],
      "name": "numPlots",
      "outputs": [
        {
          "name": "",
          "type": "uint256"
        }
      ],
      "payable": false,
      "stateMutability": "view",
      "type": "function",
      "signature": "0x138b3ab1"
    },
    {
      "constant": false,
      "inputs": [
        {
          "name": "_buyer",
          "type": "address"
        },
        {
          "name": "_pid",
          "type": "uint256"
        }
      ],
      "name": "buyPlot",
      "outputs": [
        {
          "name": "",
          "type": "bool"
        }
      ],
      "payable": false,
      "stateMutability": "nonpayable",
      "type": "function",
      "signature": "0xe389722a"
    },
    {
      "constant": false,
      "inputs": [
        {
          "name": "_owner",
          "type": "address"
        },
        {
          "name": "_pid",
          "type": "uint256"
        },
        {
          "name": "_newPrice",
          "type": "uint256"
        }
      ],
      "name": "changePrice",
      "outputs": [
        {
          "name": "",
          "type": "bool"
        }
      ],
      "payable": false,
      "stateMutability": "nonpayable",
      "type": "function",
      "signature": "0x741cbae4"
    },
    {
      "constant": false,
      "inputs": [
        {
          "name": "_owner",
          "type": "address"
        },
        {
          "name": "_pid",
          "type": "uint256"
        },
        {
          "name": "_newName",
          "type": "string"
        }
      ],
      "name": "changeName",
      "outputs": [
        {
          "name": "",
          "type": "bool"
        }
      ],
      "payable": false,
      "stateMutability": "nonpayable",
      "type": "function",
      "signature": "0x5a04f879"
    },
    {
      "constant": false,
      "inputs": [
        {
          "name": "_owner",
          "type": "address"
        },
        {
          "name": "_pid",
          "type": "uint256"
        }
      ],
      "name": "listPlot",
      "outputs": [
        {
          "name": "",
          "type": "bool"
        }
      ],
      "payable": false,
      "stateMutability": "nonpayable",
      "type": "function",
      "signature": "0x320fe4a4"
    }
  ],
  "bytecode": "0x608060405234801561001057600080fd5b50610019610187565b60c060405190810160405280607b81526020016040805190810160405280600581526020017f6c616e6431000000000000000000000000000000000000000000000000000000815250815260200173475d51a4393e0a1ab28d0599ec5e734b16825d4c73ffffffffffffffffffffffffffffffffffffffff1681526020016000815260200160011515815260200160008152509050600081908060018154018082558091505090600182039060005260206000209060070201600090919290919091506000820151816000015560208201518160010190805190602001906101029291906101d6565b5060408201518160020160006101000a81548173ffffffffffffffffffffffffffffffffffffffff021916908373ffffffffffffffffffffffffffffffffffffffff1602179055506060820151816003015560808201518160040160006101000a81548160ff02191690831515021790555060a082015181600601555050505061027b565b60c0604051908101604052806000815260200160608152602001600073ffffffffffffffffffffffffffffffffffffffff16815260200160008152602001600015158152602001600081525090565b828054600181600116156101000203166002900490600052602060002090601f016020900481019282601f1061021757805160ff1916838001178555610245565b82800160010185558215610245579182015b82811115610244578251825591602001919060010190610229565b5b5090506102529190610256565b5090565b61027891905b8082111561027457600081600090555060010161025c565b5090565b90565b610ae28061028a6000396000f3fe608060405260043610610078576000357c0100000000000000000000000000000000000000000000000000000000900463ffffffff168063138b3ab11461007d578063320fe4a4146100a85780635a04f8791461011b57806361bf49ee14610225578063741cbae41461032c578063e389722a146103a9575b600080fd5b34801561008957600080fd5b5061009261041c565b6040518082815260200191505060405180910390f35b3480156100b457600080fd5b50610101600480360360408110156100cb57600080fd5b81019080803573ffffffffffffffffffffffffffffffffffffffff16906020019092919080359060200190929190505050610428565b604051808215151515815260200191505060405180910390f35b34801561012757600080fd5b5061020b6004803603606081101561013e57600080fd5b81019080803573ffffffffffffffffffffffffffffffffffffffff169060200190929190803590602001909291908035906020019064010000000081111561018557600080fd5b82018360208201111561019757600080fd5b803590602001918460018302840111640100000000831117156101b957600080fd5b91908080601f016020809104026020016040519081016040528093929190818152602001838380828437600081840152601f19601f820116905080830192505050505050509192919290505050610514565b604051808215151515815260200191505060405180910390f35b34801561023157600080fd5b5061025e6004803603602081101561024857600080fd5b81019080803590602001909291905050506105d0565b60405180878152602001806020018673ffffffffffffffffffffffffffffffffffffffff1673ffffffffffffffffffffffffffffffffffffffff16815260200185815260200184151515158152602001838152602001828103825287818151815260200191508051906020019080838360005b838110156102ec5780820151818401526020810190506102d1565b50505050905090810190601f1680156103195780820380516001836020036101000a031916815260200191505b5097505050505050505060405180910390f35b34801561033857600080fd5b5061038f6004803603606081101561034f57600080fd5b81019080803573ffffffffffffffffffffffffffffffffffffffff16906020019092919080359060200190929190803590602001909291905050506106e0565b604051808215151515815260200191505060405180910390f35b3480156103b557600080fd5b50610402600480360360408110156103cc57600080fd5b81019080803573ffffffffffffffffffffffffffffffffffffffff1690602001909291908035906020019092919050505061078c565b604051808215151515815260200191505060405180910390f35b60008080549050905090565b60008273ffffffffffffffffffffffffffffffffffffffff1660008381548110151561045057fe5b906000526020600020906007020160020160009054906101000a900473ffffffffffffffffffffffffffffffffffffffff1673ffffffffffffffffffffffffffffffffffffffff161415156104a457600080fd5b6000828154811015156104b357fe5b906000526020600020906007020160040160009054906101000a900460ff16156000838154811015156104e257fe5b906000526020600020906007020160040160006101000a81548160ff0219169083151502179055506001905092915050565b60008373ffffffffffffffffffffffffffffffffffffffff1660008481548110151561053c57fe5b906000526020600020906007020160020160009054906101000a900473ffffffffffffffffffffffffffffffffffffffff1673ffffffffffffffffffffffffffffffffffffffff1614151561059057600080fd5b816000848154811015156105a057fe5b906000526020600020906007020160010190805190602001906105c4929190610a11565b50600190509392505050565b6000818154811015156105df57fe5b9060005260206000209060070201600091509050806000015490806001018054600181600116156101000203166002900480601f0160208091040260200160405190810160405280929190818152602001828054600181600116156101000203166002900480156106915780601f1061066657610100808354040283529160200191610691565b820191906000526020600020905b81548152906001019060200180831161067457829003601f168201915b5050505050908060020160009054906101000a900473ffffffffffffffffffffffffffffffffffffffff16908060030154908060040160009054906101000a900460ff16908060060154905086565b60008373ffffffffffffffffffffffffffffffffffffffff1660008481548110151561070857fe5b906000526020600020906007020160020160009054906101000a900473ffffffffffffffffffffffffffffffffffffffff1673ffffffffffffffffffffffffffffffffffffffff1614151561075c57600080fd5b8160008481548110151561076c57fe5b906000526020600020906007020160030181905550600190509392505050565b6000808281548110151561079c57fe5b906000526020600020906007020160040160009054906101000a900460ff1615156107c657600080fd5b600080838154811015156107d657fe5b906000526020600020906007020160020160009054906101000a900473ffffffffffffffffffffffffffffffffffffffff1690508360008481548110151561081a57fe5b906000526020600020906007020160020160006101000a81548173ffffffffffffffffffffffffffffffffffffffff021916908373ffffffffffffffffffffffffffffffffffffffff1602179055506108738484610428565b506080604051908101604052804281526020018573ffffffffffffffffffffffffffffffffffffffff1681526020018273ffffffffffffffffffffffffffffffffffffffff1681526020016000858154811015156108cd57fe5b9060005260206000209060070201600301548152506000848154811015156108f157fe5b90600052602060002090600702016005016000808681548110151561091257fe5b90600052602060002090600702016006015481526020019081526020016000206000820151816000015560208201518160010160006101000a81548173ffffffffffffffffffffffffffffffffffffffff021916908373ffffffffffffffffffffffffffffffffffffffff16021790555060408201518160020160006101000a81548173ffffffffffffffffffffffffffffffffffffffff021916908373ffffffffffffffffffffffffffffffffffffffff1602179055506060820151816003015590505060016000848154811015156109e857fe5b906000526020600020906007020160060160008282540192505081905550600191505092915050565b828054600181600116156101000203166002900490600052602060002090601f016020900481019282601f10610a5257805160ff1916838001178555610a80565b82800160010185558215610a80579182015b82811115610a7f578251825591602001919060010190610a64565b5b509050610a8d9190610a91565b5090565b610ab391905b80821115610aaf576000816000905550600101610a97565b5090565b9056fea165627a7a723058207bcec4d306e27ba377300d74684d8bac0f46df3193e70c46b2bacc8fc2a20b800029",
  "source": "// SPDX-License-Identifier: MIT\npragma solidity >=0.4.22 <0.9.0;\n\ncontract Land {\n        \n\n\n    struct History {\n        uint256 date;\n        address buyer;\n        address seller;\n        uint256 price;\n    }\n\n    struct Plot {\n        uint id; // id of plot of land\n        string name; // name of land\n        address owner; // current owner of plot\n        uint price; // current price of plot\n        bool onMarket; // true if owner wants to sell\n        mapping(uint256 => History) history; // history of past owners/sell prices\n        uint256 historyLength; // length of history\n    }\n\n    // mapping(uint256 => Plot) public plots; // database of all plots\n    Plot[] public plots;\n\n    constructor() public {\n        Plot memory p1 = Plot({\n            id: 123,\n            name: \"land1\",\n            owner: 0x475d51A4393e0A1Ab28D0599EC5E734b16825D4C,\n            price: 0,\n            onMarket: true,\n            historyLength: 0\n        });\n\n        plots.push(p1);\n        // plots[numPlots] = p1;\n        // numPlots += 1;\n\n        // return true;\n        // this.createLand.call(123, \"land1\", \"0xb826e57cafb563FA63E937DCE4274e642e1416e3\", 1, true);\n    }\n\n    // from a2\n    // You must emit these events when certain triggers occur (see the ERC-20 spec).\n    event Approval(address indexed _from, address indexed _to, uint256 _value);\n    event Transfer(\n        address indexed _owner,\n        address indexed _spender,\n        uint256 _value\n    );\n\n    function numPlots() public view returns (uint256) {\n        return plots.length;\n    }\n\n    // function createLand(uint256 _id, string memory _name, address _owner, uint256 _price, bool _onMarket) public returns (bool) {\n    //     // create new plot\n        \n    // }\n\n    // buy a plot of land\n    function buyPlot(address _buyer, uint256 _pid) public returns (bool) {\n        // make sure owner wants to sell\n        require(plots[_pid].onMarket);\n\n        // save old owner for updating history\n        address oldOwner = plots[_pid].owner;\n\n        // change owners, automatically take plot off market\n        plots[_pid].owner = _buyer;\n        listPlot(_buyer, _pid);\n\n        // exchange money\n\n        // add to history\n        plots[_pid].history[plots[_pid].historyLength] = (\n            History(block.timestamp, _buyer, oldOwner, plots[_pid].price)\n        );\n        plots[_pid].historyLength += 1;\n\n        return true;\n    }\n\n    // change price of plot of land\n    function changePrice(\n        address _owner,\n        uint256 _pid,\n        uint256 _newPrice\n    ) public returns (bool) {\n        require(plots[_pid].owner == _owner); // make sure request is from owner\n        plots[_pid].price = _newPrice;\n        return true;\n    }\n\n    // change name of plot of land\n    function changeName(\n        address _owner,\n        uint256 _pid,\n        string memory _newName\n    ) public returns (bool) {\n        require(plots[_pid].owner == _owner); // make sure request is from owner\n        plots[_pid].name = _newName;\n        return true;\n    }\n\n    // put plot on/off market\n    function listPlot(address _owner, uint256 _pid) public returns (bool) {\n        require(plots[_pid].owner == _owner); // make sure request is from owner\n\n        plots[_pid].onMarket = !plots[_pid].onMarket;\n\n        return true;\n    }\n}\n",
  "sourcePath": "/Users/monique/Documents/3 - programs/GitHub/etherverse/backend/contracts/Land.sol",
  "compiler": {
    "name": "solc",
    "version": "0.5.0+commit.1d4f565a.Emscripten.clang"
  },
  "schemaVersion": "3.0.2",
  "updatedAt": "2022-05-01T20:00:14.226Z",
  "devdoc": {
    "methods": {}
  },
  "userdoc": {
    "methods": {}
  }
}