{
  "contractName": "Land",
  "abi": [
    {
      "anonymous": false,
      "inputs": [
        {
          "indexed": true,
          "internalType": "address",
          "name": "_from",
          "type": "address"
        },
        {
          "indexed": true,
          "internalType": "address",
          "name": "_to",
          "type": "address"
        },
        {
          "indexed": false,
          "internalType": "uint256",
          "name": "_value",
          "type": "uint256"
        }
      ],
      "name": "Approval",
      "type": "event"
    },
    {
      "anonymous": false,
      "inputs": [
        {
          "indexed": true,
          "internalType": "address",
          "name": "_owner",
          "type": "address"
        },
        {
          "indexed": true,
          "internalType": "address",
          "name": "_spender",
          "type": "address"
        },
        {
          "indexed": false,
          "internalType": "uint256",
          "name": "_value",
          "type": "uint256"
        }
      ],
      "name": "Transfer",
      "type": "event"
    },
    {
      "constant": true,
      "inputs": [
        {
          "internalType": "uint256",
          "name": "",
          "type": "uint256"
        }
      ],
      "name": "plots",
      "outputs": [
        {
          "internalType": "uint256",
          "name": "id",
          "type": "uint256"
        },
        {
          "internalType": "string",
          "name": "name",
          "type": "string"
        },
        {
          "internalType": "address",
          "name": "owner",
          "type": "address"
        },
        {
          "internalType": "uint256",
          "name": "price",
          "type": "uint256"
        },
        {
          "internalType": "bool",
          "name": "onMarket",
          "type": "bool"
        }
      ],
      "payable": false,
      "stateMutability": "view",
      "type": "function"
    },
    {
      "constant": false,
      "inputs": [
        {
          "internalType": "address",
          "name": "_buyer",
          "type": "address"
        },
        {
          "internalType": "uint256",
          "name": "_pid",
          "type": "uint256"
        }
      ],
      "name": "buyPlot",
      "outputs": [
        {
          "internalType": "bool",
          "name": "",
          "type": "bool"
        }
      ],
      "payable": false,
      "stateMutability": "nonpayable",
      "type": "function"
    },
    {
      "constant": false,
      "inputs": [
        {
          "internalType": "address",
          "name": "_owner",
          "type": "address"
        },
        {
          "internalType": "uint256",
          "name": "_pid",
          "type": "uint256"
        },
        {
          "internalType": "uint256",
          "name": "_newPrice",
          "type": "uint256"
        }
      ],
      "name": "changePrice",
      "outputs": [
        {
          "internalType": "bool",
          "name": "",
          "type": "bool"
        }
      ],
      "payable": false,
      "stateMutability": "nonpayable",
      "type": "function"
    },
    {
      "constant": false,
      "inputs": [
        {
          "internalType": "address",
          "name": "_owner",
          "type": "address"
        },
        {
          "internalType": "uint256",
          "name": "_pid",
          "type": "uint256"
        },
        {
          "internalType": "string",
          "name": "_newName",
          "type": "string"
        }
      ],
      "name": "changeName",
      "outputs": [
        {
          "internalType": "bool",
          "name": "",
          "type": "bool"
        }
      ],
      "payable": false,
      "stateMutability": "nonpayable",
      "type": "function"
    },
    {
      "constant": false,
      "inputs": [
        {
          "internalType": "address",
          "name": "_owner",
          "type": "address"
        },
        {
          "internalType": "uint256",
          "name": "_pid",
          "type": "uint256"
        }
      ],
      "name": "listPlot",
      "outputs": [
        {
          "internalType": "bool",
          "name": "",
          "type": "bool"
        }
      ],
      "payable": false,
      "stateMutability": "nonpayable",
      "type": "function"
    }
  ],
  "bytecode": "0x60806040526000805534801561001457600080fd5b50610983806100246000396000f3fe608060405234801561001057600080fd5b50600436106100575760003560e01c8063320fe4a41461005c5780635a04f879146100c257806361bf49ee146101bf578063741cbae4146102b2578063e389722a14610322575b600080fd5b6100a86004803603604081101561007257600080fd5b81019080803573ffffffffffffffffffffffffffffffffffffffff16906020019092919080359060200190929190505050610388565b604051808215151515815260200191505060405180910390f35b6101a5600480360360608110156100d857600080fd5b81019080803573ffffffffffffffffffffffffffffffffffffffff169060200190929190803590602001909291908035906020019064010000000081111561011f57600080fd5b82018360208201111561013157600080fd5b8035906020019184600183028401116401000000008311171561015357600080fd5b91908080601f016020809104026020016040519081016040528093929190818152602001838380828437600081840152601f19601f820116905080830192505050505050509192919290505050610454565b604051808215151515815260200191505060405180910390f35b6101eb600480360360208110156101d557600080fd5b81019080803590602001909291905050506104fa565b60405180868152602001806020018573ffffffffffffffffffffffffffffffffffffffff1673ffffffffffffffffffffffffffffffffffffffff16815260200184815260200183151515158152602001828103825286818151815260200191508051906020019080838360005b83811015610273578082015181840152602081019050610258565b50505050905090810190601f1680156102a05780820380516001836020036101000a031916815260200191505b50965050505050505060405180910390f35b610308600480360360608110156102c857600080fd5b81019080803573ffffffffffffffffffffffffffffffffffffffff16906020019092919080359060200190929190803590602001909291905050506105f5565b604051808215151515815260200191505060405180910390f35b61036e6004803603604081101561033857600080fd5b81019080803573ffffffffffffffffffffffffffffffffffffffff1690602001909291908035906020019092919050505061068b565b604051808215151515815260200191505060405180910390f35b60008273ffffffffffffffffffffffffffffffffffffffff166001600084815260200190815260200160002060020160009054906101000a900473ffffffffffffffffffffffffffffffffffffffff1673ffffffffffffffffffffffffffffffffffffffff16146103f857600080fd5b6001600083815260200190815260200160002060040160009054906101000a900460ff16156001600084815260200190815260200160002060040160006101000a81548160ff0219169083151502179055506001905092915050565b60008373ffffffffffffffffffffffffffffffffffffffff166001600085815260200190815260200160002060020160009054906101000a900473ffffffffffffffffffffffffffffffffffffffff1673ffffffffffffffffffffffffffffffffffffffff16146104c457600080fd5b816001600085815260200190815260200160002060010190805190602001906104ee9291906108a9565b50600190509392505050565b6001602052806000526040600020600091509050806000015490806001018054600181600116156101000203166002900480601f0160208091040260200160405190810160405280929190818152602001828054600181600116156101000203166002900480156105ac5780601f10610581576101008083540402835291602001916105ac565b820191906000526020600020905b81548152906001019060200180831161058f57829003601f168201915b5050505050908060020160009054906101000a900473ffffffffffffffffffffffffffffffffffffffff16908060030154908060040160009054906101000a900460ff16905085565b60008373ffffffffffffffffffffffffffffffffffffffff166001600085815260200190815260200160002060020160009054906101000a900473ffffffffffffffffffffffffffffffffffffffff1673ffffffffffffffffffffffffffffffffffffffff161461066557600080fd5b816001600085815260200190815260200160002060030181905550600190509392505050565b60006001600083815260200190815260200160002060040160009054906101000a900460ff166106ba57600080fd5b60006001600084815260200190815260200160002060020160009054906101000a900473ffffffffffffffffffffffffffffffffffffffff169050836001600085815260200190815260200160002060020160006101000a81548173ffffffffffffffffffffffffffffffffffffffff021916908373ffffffffffffffffffffffffffffffffffffffff1602179055506107548484610388565b506001600084815260200190815260200160002060050160405180608001604052804281526020018673ffffffffffffffffffffffffffffffffffffffff1681526020018373ffffffffffffffffffffffffffffffffffffffff1681526020016001600087815260200190815260200160002060030154815250908060018154018082558091505090600182039060005260206000209060040201600090919290919091506000820151816000015560208201518160010160006101000a81548173ffffffffffffffffffffffffffffffffffffffff021916908373ffffffffffffffffffffffffffffffffffffffff16021790555060408201518160020160006101000a81548173ffffffffffffffffffffffffffffffffffffffff021916908373ffffffffffffffffffffffffffffffffffffffff16021790555060608201518160030155505050600191505092915050565b828054600181600116156101000203166002900490600052602060002090601f016020900481019282601f106108ea57805160ff1916838001178555610918565b82800160010185558215610918579182015b828111156109175782518255916020019190600101906108fc565b5b5090506109259190610929565b5090565b61094b91905b8082111561094757600081600090555060010161092f565b5090565b9056fea265627a7a72315820b5cd1761b96d7bd9dc41e7976b9a9d03790374933292cc6c85049c9cd72af98864736f6c63430005100032",
  "source": "// SPDX-License-Identifier: MIT\npragma solidity >=0.4.22 <0.9.0;\n\ncontract Land {\n    uint256 price = 0;\n\n    struct History {\n        uint256 date;\n        address buyer;\n        address seller;\n        uint256 price;\n    }\n\n    struct Plot {\n        uint256 id; // id of plot of land\n        string name; // name of land\n        address owner; // current owner of plot\n        uint256 price; // current price of plot\n        bool onMarket; // true if owner wants to sell\n        History[] history; // history of past owners/sell prices\n    }\n\n    mapping(uint256 => Plot) public plots; // database of all plots\n\n    // from a2\n    // You must emit these events when certain triggers occur (see the ERC-20 spec).\n    event Approval(address indexed _from, address indexed _to, uint256 _value);\n    event Transfer(\n        address indexed _owner,\n        address indexed _spender,\n        uint256 _value\n    );\n\n    // buy a plot of land\n    function buyPlot(address _buyer, uint256 _pid) public returns (bool) {\n        // make sure owner wants to sell\n        require(plots[_pid].onMarket);\n\n        // save old owner for updating history\n        address oldOwner = plots[_pid].owner;\n\n        // change owners, automatically take plot off market\n        plots[_pid].owner = _buyer;\n        listPlot(_buyer, _pid);\n\n        // exchange money\n\n        // add to history\n        plots[_pid].history.push(\n            History(block.timestamp, _buyer, oldOwner, plots[_pid].price)\n        );\n\n        return true;\n    }\n\n    // change price of plot of land\n    function changePrice(\n        address _owner,\n        uint256 _pid,\n        uint256 _newPrice\n    ) public returns (bool) {\n        require(plots[_pid].owner == _owner); // make sure request is from owner\n        plots[_pid].price = _newPrice;\n        return true;\n    }\n\n    // change name of plot of land\n    function changeName(\n        address _owner,\n        uint256 _pid,\n        string memory _newName\n    ) public returns (bool) {\n        require(plots[_pid].owner == _owner); // make sure request is from owner\n        plots[_pid].name = _newName;\n        return true;\n    }\n\n    // put plot on/off market\n    function listPlot(address _owner, uint256 _pid) public returns (bool) {\n        require(plots[_pid].owner == _owner); // make sure request is from owner\n\n        plots[_pid].onMarket = !plots[_pid].onMarket;\n\n        return true;\n    }\n}\n",
  "sourcePath": "/Users/abhinaya/2021-2022/spring/cos495/etherverse/backend/contracts/Land.sol",
  "compiler": {
    "name": "solc",
    "version": "0.5.16+commit.9c3226ce.Emscripten.clang"
  },
  "schemaVersion": "3.4.5",
  "updatedAt": "2022-04-29T19:41:07.800Z",
  "devdoc": {
    "methods": {}
  },
  "userdoc": {
    "methods": {}
  }
}