{
  "contractName": "Transactions",
  "abi": [
    {
      "inputs": [],
      "payable": false,
      "stateMutability": "nonpayable",
      "type": "constructor"
    },
    {
      "anonymous": false,
      "inputs": [
        {
          "indexed": true,
          "internalType": "address",
          "name": "sender",
          "type": "address"
        },
        {
          "indexed": true,
          "internalType": "address",
          "name": "receiver",
          "type": "address"
        },
        {
          "indexed": false,
          "internalType": "uint256",
          "name": "amount",
          "type": "uint256"
        },
        {
          "indexed": false,
          "internalType": "string",
          "name": "remark",
          "type": "string"
        },
        {
          "indexed": false,
          "internalType": "uint256",
          "name": "timestamp",
          "type": "uint256"
        }
      ],
      "name": "Transfer",
      "type": "event"
    },
    {
      "constant": true,
      "inputs": [],
      "name": "getOwner",
      "outputs": [
        {
          "internalType": "address",
          "name": "",
          "type": "address"
        }
      ],
      "payable": false,
      "stateMutability": "view",
      "type": "function"
    },
    {
      "constant": false,
      "inputs": [
        {
          "internalType": "address payable",
          "name": "receiver",
          "type": "address"
        },
        {
          "internalType": "uint256",
          "name": "amount",
          "type": "uint256"
        },
        {
          "internalType": "string",
          "name": "remark",
          "type": "string"
        }
      ],
      "name": "sendMoney",
      "outputs": [
        {
          "internalType": "bool",
          "name": "success",
          "type": "bool"
        }
      ],
      "payable": false,
      "stateMutability": "nonpayable",
      "type": "function"
    },
    {
      "constant": true,
      "inputs": [
        {
          "internalType": "address",
          "name": "addr",
          "type": "address"
        }
      ],
      "name": "getBalance",
      "outputs": [
        {
          "internalType": "uint256",
          "name": "",
          "type": "uint256"
        }
      ],
      "payable": false,
      "stateMutability": "view",
      "type": "function"
    },
    {
      "constant": true,
      "inputs": [],
      "name": "getAllTransactions",
      "outputs": [
        {
          "components": [
            {
              "internalType": "address",
              "name": "sender",
              "type": "address"
            },
            {
              "internalType": "address",
              "name": "receiver",
              "type": "address"
            },
            {
              "internalType": "uint256",
              "name": "amount",
              "type": "uint256"
            },
            {
              "internalType": "string",
              "name": "remark",
              "type": "string"
            },
            {
              "internalType": "uint256",
              "name": "timestamp",
              "type": "uint256"
            }
          ],
          "internalType": "struct Transactions.TransferStruct[]",
          "name": "",
          "type": "tuple[]"
        }
      ],
      "payable": false,
      "stateMutability": "view",
      "type": "function"
    },
    {
      "constant": true,
      "inputs": [],
      "name": "getTransactionsCount",
      "outputs": [
        {
          "internalType": "uint256",
          "name": "",
          "type": "uint256"
        }
      ],
      "payable": false,
      "stateMutability": "view",
      "type": "function"
    }
  ],
  "bytecode": "0x608060405234801561001057600080fd5b50336000806101000a81548173ffffffffffffffffffffffffffffffffffffffff021916908373ffffffffffffffffffffffffffffffffffffffff1602179055503373ffffffffffffffffffffffffffffffffffffffff1631600260003273ffffffffffffffffffffffffffffffffffffffff1673ffffffffffffffffffffffffffffffffffffffff16815260200190815260200160002081905550610c9d806100bb6000396000f3fe608060405234801561001057600080fd5b50600436106100575760003560e01c8063125c5df71461005c57806327506f531461008c578063578cb8f9146100aa578063893d20e8146100c8578063f8b2cb4f146100e6575b600080fd5b610076600480360361007191908101906107ca565b610116565b6040516100839190610a2a565b60405180910390f35b61009461042c565b6040516100a19190610a08565b60405180910390f35b6100b26105ed565b6040516100bf9190610a45565b60405180910390f35b6100d06105f7565b6040516100dd91906109ed565b60405180910390f35b61010060048036036100fb91908101906107a1565b610620565b60405161010d9190610a45565b60405180910390f35b600082600260008060009054906101000a900473ffffffffffffffffffffffffffffffffffffffff1673ffffffffffffffffffffffffffffffffffffffff1673ffffffffffffffffffffffffffffffffffffffff1681526020019081526020016000205410156101895760009050610425565b82600260008060009054906101000a900473ffffffffffffffffffffffffffffffffffffffff1673ffffffffffffffffffffffffffffffffffffffff1673ffffffffffffffffffffffffffffffffffffffff1681526020019081526020016000206000828254039250508190555082600260008673ffffffffffffffffffffffffffffffffffffffff1673ffffffffffffffffffffffffffffffffffffffff168152602001908152602001600020600082825401925050819055506001806000828254019250508190555060036040518060a001604052806000809054906101000a900473ffffffffffffffffffffffffffffffffffffffff1673ffffffffffffffffffffffffffffffffffffffff1681526020018673ffffffffffffffffffffffffffffffffffffffff168152602001858152602001848152602001428152509080600181540180825580915050906001820390600052602060002090600502016000909192909190915060008201518160000160006101000a81548173ffffffffffffffffffffffffffffffffffffffff021916908373ffffffffffffffffffffffffffffffffffffffff16021790555060208201518160010160006101000a81548173ffffffffffffffffffffffffffffffffffffffff021916908373ffffffffffffffffffffffffffffffffffffffff1602179055506040820151816002015560608201518160030190805190602001906103a9929190610669565b50608082015181600401555050508373ffffffffffffffffffffffffffffffffffffffff163373ffffffffffffffffffffffffffffffffffffffff167fc4b32d7ff75a51e487f3cbb5d3202f2efecca1f4c2b987e0039c1d3220b48a8385854260405161041893929190610a60565b60405180910390a3600190505b9392505050565b60606003805480602002602001604051908101604052809291908181526020016000905b828210156105e457838290600052602060002090600502016040518060a00160405290816000820160009054906101000a900473ffffffffffffffffffffffffffffffffffffffff1673ffffffffffffffffffffffffffffffffffffffff1673ffffffffffffffffffffffffffffffffffffffff1681526020016001820160009054906101000a900473ffffffffffffffffffffffffffffffffffffffff1673ffffffffffffffffffffffffffffffffffffffff1673ffffffffffffffffffffffffffffffffffffffff16815260200160028201548152602001600382018054600181600116156101000203166002900480601f0160208091040260200160405190810160405280929190818152602001828054600181600116156101000203166002900480156105c25780601f10610597576101008083540402835291602001916105c2565b820191906000526020600020905b8154815290600101906020018083116105a557829003601f168201915b5050505050815260200160048201548152505081526020019060010190610450565b50505050905090565b6000600154905090565b60008060009054906101000a900473ffffffffffffffffffffffffffffffffffffffff16905090565b6000600260008373ffffffffffffffffffffffffffffffffffffffff1673ffffffffffffffffffffffffffffffffffffffff168152602001908152602001600020549050919050565b828054600181600116156101000203166002900490600052602060002090601f016020900481019282601f106106aa57805160ff19168380011785556106d8565b828001600101855582156106d8579182015b828111156106d75782518255916020019190600101906106bc565b5b5090506106e591906106e9565b5090565b61070b91905b808211156107075760008160009055506001016106ef565b5090565b90565b60008135905061071d81610c15565b92915050565b60008135905061073281610c2c565b92915050565b600082601f83011261074957600080fd5b813561075c61075782610acb565b610a9e565b9150808252602083016020830185838301111561077857600080fd5b610783838284610bc2565b50505092915050565b60008135905061079b81610c43565b92915050565b6000602082840312156107b357600080fd5b60006107c18482850161070e565b91505092915050565b6000806000606084860312156107df57600080fd5b60006107ed86828701610723565b93505060206107fe8682870161078c565b925050604084013567ffffffffffffffff81111561081b57600080fd5b61082786828701610738565b9150509250925092565b600061083d8383610959565b905092915050565b61084e81610b68565b82525050565b61085d81610b68565b82525050565b600061086e82610b07565b6108788185610b35565b93508360208202850161088a85610af7565b8060005b858110156108c657848403895281516108a78582610831565b94506108b283610b28565b925060208a0199505060018101905061088e565b50829750879550505050505092915050565b6108e181610b8c565b82525050565b60006108f282610b1d565b6108fc8185610b57565b935061090c818560208601610bd1565b61091581610c04565b840191505092915050565b600061092b82610b12565b6109358185610b46565b9350610945818560208601610bd1565b61094e81610c04565b840191505092915050565b600060a0830160008301516109716000860182610845565b5060208301516109846020860182610845565b50604083015161099760408601826109cf565b50606083015184820360608601526109af8282610920565b91505060808301516109c460808601826109cf565b508091505092915050565b6109d881610bb8565b82525050565b6109e781610bb8565b82525050565b6000602082019050610a026000830184610854565b92915050565b60006020820190508181036000830152610a228184610863565b905092915050565b6000602082019050610a3f60008301846108d8565b92915050565b6000602082019050610a5a60008301846109de565b92915050565b6000606082019050610a7560008301866109de565b8181036020830152610a8781856108e7565b9050610a9660408301846109de565b949350505050565b6000604051905081810181811067ffffffffffffffff82111715610ac157600080fd5b8060405250919050565b600067ffffffffffffffff821115610ae257600080fd5b601f19601f8301169050602081019050919050565b6000819050602082019050919050565b600081519050919050565b600081519050919050565b600081519050919050565b6000602082019050919050565b600082825260208201905092915050565b600082825260208201905092915050565b600082825260208201905092915050565b6000610b7382610b98565b9050919050565b6000610b8582610b98565b9050919050565b60008115159050919050565b600073ffffffffffffffffffffffffffffffffffffffff82169050919050565b6000819050919050565b82818337600083830152505050565b60005b83811015610bef578082015181840152602081019050610bd4565b83811115610bfe576000848401525b50505050565b6000601f19601f8301169050919050565b610c1e81610b68565b8114610c2957600080fd5b50565b610c3581610b7a565b8114610c4057600080fd5b50565b610c4c81610bb8565b8114610c5757600080fd5b5056fea365627a7a72315820087fc10109e330cedee5558e2a211cbdf881e60b74a6d39cc906edb6f9355b4d6c6578706572696d656e74616cf564736f6c63430005100040",
  "source": "// SPDX-License-Identifier: MIT\npragma solidity >=0.4.22 <0.9.0;\npragma experimental ABIEncoderV2;\n\ncontract Transactions {\n    address private owner;\n    uint256 transactionCounts;\n    mapping (address => uint) balanceOf;\n\n    event Transfer(address indexed sender, address indexed receiver, uint256 amount, string remark, uint256 timestamp);\n\n    struct TransferStruct {\n        address sender;\n        address receiver;\n        uint256 amount;\n        string remark;\n        uint256 timestamp;\n    }\n    \n    TransferStruct[] transactions;\n\n    constructor() public {\n        owner = msg.sender;\n        balanceOf[tx.origin] = msg.sender.balance;\n    }\n\n    function getOwner() public view returns (address) {\n        return owner;\n    }\n\n    function sendMoney(address payable receiver, uint256 amount, string memory remark) public returns(bool success) {\n        if (balanceOf[owner] < amount) return false;\n        balanceOf[owner] -= amount;\n        balanceOf[receiver] += amount;\n\n        transactionCounts += 1;\n        transactions.push(\n            TransferStruct(\n                owner,\n                receiver,\n                amount,\n                remark,\n                block.timestamp\n            )\n        );\n\n        emit Transfer(msg.sender, receiver, amount, remark, block.timestamp);\n        return true;\n    }\n\n    function getBalance(address addr) public view returns(uint) {\n        return balanceOf[addr];\n    }\n\n    function getAllTransactions() public view returns(TransferStruct[] memory) {\n        return transactions;\n    }\n\n    function getTransactionsCount() public view returns(uint256) {\n        return transactionCounts;\n    }\n}",
  "sourcePath": "/Users/abhinaya/2021-2022/spring/cos495/etherverse/backend/contracts/Transactions.sol",
  "compiler": {
    "name": "solc",
    "version": "0.5.16+commit.9c3226ce.Emscripten.clang"
  },
  "schemaVersion": "3.4.5",
  "updatedAt": "2022-04-29T19:10:05.658Z",
  "networkType": "ethereum",
  "devdoc": {
    "methods": {}
  },
  "userdoc": {
    "methods": {}
  }
}